:020000040800F2
:10000000801D0020D97A0008797600087B760008E8
:100010007D7600087F7600088176000800000000E9
:1000200000000000000000000000000083760008CF
:1000300085760008000000008776000889760008B1
:100040008D7C0008917C0008957C0008997C000854
:100050009D7C0008A17C0008A57C0008A97C000804
:10006000AD7C0008B17C0008B57C000899760008DA
:10007000B97C00089F760008BD7C0008A5760008C2
:10008000C17C0008C57C0008C97C0008CD7C000844
:10009000D17C0008D57C0008D97C0008DD7C0008F4
:1000A000E17C0008E57C0008E97C0008ED7C0008A4
:1000B000F17C00080000000000000000F57C000852
:1000C000F97C0008FD7C0008017D0008057D000822
:1000D000097D0008AB7600080D7D0008B1760008A8
:1000E000117D0008157D00080000000000000000E0
:1000F0000000000000000000000000000000000000
:1001000000000000197D0008000000001D7D0008AF
:100110000000000000000000217D0008257D00088F
:10012000297D00082D7D0008317D0008357D0008FF
:10013000397D000800000000000000000000000001
:100140003D7D0008417D0008457D0008497D00088F
:100150004D7D0008517D0008557D0008597D00083F
:100160005D7D0008617D0008657D000800000000DD
:10017000697D00086D7D0008717D000800000000A9
:10018000757D0008797D00087D7D00082DE9F14F1F
:10019000B0B0924604910DF142013A9A2B919946E2
:1001A0004A7000200AE01AF8011B0498309A904720
:1001B0000028049000F0B6860D98401C0D909AF827
:1001C000000050B12528EED10021002207910892AD
:1001D00009910A920B910C9204E00D9800F0A4BED4
:1001E00041F001011AF8010F2028F9D023280CD082
:1001F0002B2804D02D2805D0302809D00BE041F061
:100200000201EFE741F00401ECE741F00801E9E702
:1002100041F01001E6E72A280FD1D9F8002052F862
:10022000040BC9F8002000280F9003D540420F901E
:1002300041F004010AF1010A14E00F92DFF82838B6
:100240000AE00F98984205DA00EB800402EB4402C2
:10025000303A0F920AF1010A9AF80020A2F1300018
:100260000A28EED39AF800002E2803D04FF0FF3270
:100270000E9229E01AF8010F2A2809D1D9F80000B6
:1002800050F8042BC9F800000E920AF1010A1BE095
:100290002D280CBF0AF1010A002000220E92DFF87F
:1002A000C8470BE040B90E9AA24205DA02EB82057C
:1002B00003EB4503303B0E930AF1010A9AF8003034
:1002C000A3F130020A2AEDD3ADF84010DFF89C0705
:1002D000784400F5F3609AF8001000F057FF08B179
:1002E0001AF8010B8DF842009DF84200682805D1EC
:1002F0009AF8000068280CD1622106E06C2804BF3F
:100300009AF800006C2804D171218DF842100AF18E
:10031000010A12A806901AF801BBBBF125012CD0E6
:100320001C3900F0D081091F022940F2CC81133919
:1003300000F02385093900F0C681891E00F0B885D8
:10034000491E00F06585491E022940F2BC81091F43
:1003500000F05E85491F00F02881491E00F00D85E0
:10036000491E00F0D080C91E0DD0891E00F0058501
:10037000C91E00F0028500F0A6BD25238DF8483087
:10038000012100F0ABBDD9F8000050F8044BC9F8CA
:100390000000002C059440F0A3802B994878002899
:1003A00000F099804FF0FF340FF6843000F0FEFE2D
:1003B000201A40F0B78500F092BD6D1E40F0A9856F
:1003C0003096079D12AF75B1309E17F8012B02A928
:1003D000304600F073FE002801D46D1EF5D10028D0
:1003E000309640F09F850A9D3020002D8DF8040046
:1003F0000CDD309E012301AA02A9304600F06EFEFA
:10040000002840F08F856D1EF4D13096059F089D21
:1004100075B1309E17F8012B02A9304600F04EFE50
:10042000002801D46D1EF5D10028309640F07A8561
:100430000B9D3020002D8DF804000CDD309E012333
:1004400001AA02A9304600F049FE002840F06A8562
:100450006D1EF4D1309605980899099D471875B11D
:10046000309E17F8012B02A9304600F027FE002825
:1004700001D46D1EF5D10028309640F053850C9DB7
:100480003020002D8DF804000CDD309E012301AAE0
:1004900002A9304600F022FE002840F043856D1E80
:1004A000F4D130969DF8400041077FF588AE2020BA
:1004B000002C8DF804007FF782AE309D012301AA45
:1004C00002A9284600F00AFE002840F02B85641E91
:1004D000F4D1309573E60FF66440059000F0FFBC50
:1004E0000E9D002D04D5204600F080FE044607E056
:1004F0002A46204600F084FE002814BF041B2C4628
:10050000089400F0ECBCD9F8001051F8040BC9F8BD
:10051000001020F00004002121F0FF3512ABCDE9DE
:1005200002450593DDE9022306993C2413B90AB973
:100530000E9898B102F00F053035641EEEB23A2ED7
:10054000A8BF2735120942EA03721B090D5508BFDF
:10055000002A03D005980D19A842EBD3081905907D
:10056000C4F13C020E98089282420ADABDF84010AB
:10057000821A4FF6EF7001400A92ADF8401000F079
:10058000AEBC002840F1AB849DF8400000F01400A0
:10059000102840F0A4840F9B07990A985B1A1B1A35
:1005A0009A1A002A40F39B84E5E32B99487820B1FE
:1005B0004FF0FF340FF65430F8E69DF84200622801
:1005C00061D0682817D06A283FD06C2806D07128DF
:1005D00047D074282CD07A281DD064E0D9F80010B8
:1005E00051F8040BC9F80010002868D14FF0FF340F
:1005F0000FF63030DAE6D9F8001051F8040BC9F8DC
:10060000001020B94FF0FF340FF61830CEE60D99E8
:10061000018000F064BCD9F8001051F8040BC9F84F
:10062000001000284BD14FF0FF340FF6F820BDE644
:10063000D9F8001051F8040BC9F8001000283ED179
:100640004FF0FF340FF6DC20B0E6D9F8001051F877
:10065000040BC9F8001080B94FF0FF340FF6C42026
:10066000A4E6D9F8001051F8040BC9F8001020B91D
:100670004FF0FF340FF6AC2098E60D9AD317C0E97F
:10068000002300F02CBCD9F8001051F8040BC9F875
:10069000001020B94FF0FF340FF6882086E60D9940
:1006A000017000F01CBCD9F8001051F8040BC9F817
:1006B000001020B94FF0FF340FF6682076E60D9950
:1006C000016000F00CBCD9F80020D21D22F0070216
:1006D000C9F80020D2E900010832C9F80020CDE9AC
:1006E0000201C80F02D007982D210AE0BDF8400092
:1006F000810702D507982B2103E0C00705D507988D
:10070000202112AA1154401C0790DDE90223079909
:1007100012A8CDE92C2308444BF020016129059053
:1007200021AC0BD00E99002902D506210E9105E0CF
:1007300001BF4BF02001672901220E92DDE902235F
:1007400059004915491C0DD11A030BD0ABF16105B5
:1007500003211A2D089102D20FF6E41110E00FF6D2
:10076000E4110DE059004915491C0DD11A030BD1B4
:10077000ABF1610503211A2D089119D30FF6CC11A5
:10078000032200F069FDAAE3DDE90201CDE92E01B3
:10079000DDE92E2323F00047B7F5801F22F0000685
:1007A0000DD20022002F08BF002E009203D116E0C8
:1007B0000FF69411E4E76A4600F05AFD0FE0DFF807
:1007C000DC08DFF8DC1800EB17500090DDE92E2381
:1007D0004FF0FF301940DFF8CC7810403943CDE9B5
:1007E00002014BF0200061280DD1059830210170E5
:1007F000821CBBF1610F05920CBF7821582141701A
:100800000798801C0790DDE9020120F0000231F01A
:10081000004308BF002A02D10026002568E14BF002
:100820002008B8F1610F40F0B4800E98002847BF4F
:1008300021210191401C0190019FDDE92C017F1CC9
:1008400000220023DDE9024500F04AFD00998DF801
:10085000842038BF85F00045091F002F00910DF15D
:10086000850653DD204629460022002300F050FD76
:100870004CD24800400D00F11C0212D0002A10DDBD
:1008800040F2FF739A4206DBDFF81C1805F00040C7
:100890000143002011E06FF31E5141EA025120464E
:1008A0000BE024F0000035F0004108BF00280FBF26
:1008B00029461C22294600F043FD04460D4600F05F
:1008C000DDFDFF1F002F804609DD00F0F5FD02462B
:1008D0000B462046294600F001FE04460D46F01D59
:1008E0000721B8F1000F0CDD491E5EBF08F00F02B2
:1008F00000F8012D4FEA2818F3D502E0002200F895
:10090000012D491EFAD5C61D002FABDC0DF1850067
:10091000361A01988642D8BF304600280DF185046A
:1009200030D4B04206DA0DF185010A5C082AA8BF6E
:100930000F2100DA0021024621AB134400E0401EE3
:1009400013F80159521E8D42F9D00F2904D10DF12F
:1009500085018B5C5B1C8B54002A04D50099091D12
:1009600021AC401C0091411E0CD46218ABF13A0638
:1009700013783033DDB23A2DA8BFF318491E02F8C0
:100980000139F5D50E99002940F1B080421E0E9232
:10099000ACE00099DFF8142747F29750414391FBF0
:1009A000F2F2DDE92C45009225F00045D2F1070274
:1009B00004DD2046294600F04EFB0BE052420020A9
:1009C000DFF8EC1600F047FB02460B4620462946AE
:1009D00000F0F6FD0446B8F1660F0E9806BF009FC2
:1009E0000A3706273F18142FC8BF142730200D469A
:1009F0008DF884000DF18506002F39DD204629464B
:100A000000F002FF01460A4606F1080304200A2608
:100A1000B2FBF6F606EB860EA2EB4E02303203F87E
:100A2000012C0A22B6FBF2F202EB820EA6EB4E0676
:100A30003036401E03F8026DE9D1083F002F03F164
:100A40000806D9DD084600F0F3FE02460B462046B4
:100A5000294600F043FD0022DFF8583600F0F6FE8C
:100A600004460D46CAE700BFCBCCCC0C1872000080
:100A70000DF18500361A0DF1850404E00098401E42
:100A8000761E0090641C20783028F7D0B8F1660FED
:100A900002D10099491C04E0B8F1650F0CBF012197
:100AA00000210E9808188642B8BF701E00281DD479
:100AB000B04204DA215C3429C8BF392100DC30217E
:100AC0000246631E9D1800E0401E15F80169521E83
:100AD0008E42F9D0392902D1A15C491CA154002AC7
:100AE00004D50099491C1C46401C00910646009DF7
:100AF00000F07EFF406A0778DDF8388030B20028C9
:100B000002DC01260FF248644BF02000662808BF83
:100B10006D1C16D0672846D128B210F1040F48DBAF
:100B2000404546DA9DF840006D1C010703D430B201
:100B30004045B8BF804628B2B8EB000848BF4FF028
:100B400000080FFA85FBBBF1000F00F3B580089891
:100B5000411C0891302205990A54B8F1000F03DCBA
:100B60009DF84000010704D50898411C089105999B
:100B70000F5418EB0B0FB8BFC8F100052DB2684237
:100B80000B90A84432B29045B8BF4646059B0898E2
:100B900036B2099632462146184400F05DFBA8EBB8
:100BA00006000C90D2E0BBF1610F17D14FF0700B33
:100BB00019E030B2404504DA9DF840100A0758BFEA
:100BC0008046B8F1010848BF4FF00008BBF1670F3D
:100BD00014BF4FF0450B4FF0650B04E0BBF1410F24
:100BE00008BF4FF0500B0898411C0891B8F1000F56
:100BF000059914F8012B0A5403DC9DF84000010705
:100C00001AD50898411C0891B8F1000F05990F54A6
:100C100012DD761E30B280450598089BB8BF464667
:100C200032B22146184400F017FB089936B2711809
:100C30000891A8EB06000B9005980899084429B282
:100C4000002980F800B003D42B224270821C04E0FB
:100C50002D2242700D46821C6D4200212CAB28468D
:100C60000AE004460A2094FBF0F000EB8005A4EBB8
:100C7000450403F8014B491C00B20028F1DC0129AE
:100C800006DC4BF02000652804BF302002F8010B81
:100C900000292CAB08D1302002F8010B06E0491ED8
:100CA000585C303002F8010B0029F8DC05990898EF
:100CB0000844121A099249E030B229B288421CDA7B
:100CC0000598089B32B22146184400F0C5FA0899ED
:100CD00036B27118ABEB0606B8F1000F08910B960F
:100CE00003DC9DF84000020704D505984754099994
:100CF000491C0991CDF8308028E00598089B2AB25C
:100D00002146184400F0A8FA0898761B5844B8F118
:100D1000000F089003DC9DF840100A0703D5411C22
:100D2000089105990F5430B280450598089BB8BFCB
:100D3000464632B204EB0B01184400F08DFA0898D5
:100D400036B230180890A8EB06000B909DF84000D2
:100D500000F01400102840F0C280079A08990B9800
:100D60008A18099982180C988A1882180F9882425A
:100D700080F2B580821A0A92B1E09DF842006228A2
:100D800008D068280ED06A2814D06C281FD071288B
:100D900010D01CE0D9F8001051F8040BC9F800106D
:100DA000C0B21AE0D9F8001051F8040BC9F80010CD
:100DB00080B212E0D9F80020D21D22F00702C9F853
:100DC0000020D2E900010832C9F8002006E0D9F875
:100DD000001051F8040BC9F800100021CDE9020100
:100DE0009DF8400001075AD5DDE90223002B08BF1A
:100DF000002A54D04BF02000782850D1079812A92F
:100E000030220A54401C431C079301F800B046E00E
:100E10009DF84200622808D068280ED06A2814D0B5
:100E20006C281FD0712810D01CE0D9F8001051F8A0
:100E3000040BC9F8001040B21AE0D9F8001051F8BC
:100E4000040BC9F8001000B212E0D9F80020D21D3E
:100E500022F00702C9F80020D2E900010832C9F8DF
:100E6000002006E0D9F8001051F8040BC9F8001072
:100E7000C117CDE90201002902D507982D210AE00A
:100E8000BDF84000810702D507982B2103E0C00779
:100E900005D50798202112AA1154401C079012A8CA
:100EA00007990144059102A8594600F04FF816E051
:100EB00001200790D9F8000050F8041BC9F8000081
:100EC0008DF848100BE025210122BBF1000F8DF8B1
:100ED0004810079203D08DF849B0022107910F9A6C
:100EE00007980A990C9C121A0898521A0B99121A10
:100EF0000998521A121A9DF84000141B41073FF539
:100F000060AA2020002C8DF804007FF75AAA309E9A
:100F10002546012301AA02A9304600F0DFF8002887
:100F20003FF44BAA4FF0FF3031B0BDE8F08F000026
:100F30007072696E74665F733A2062616420257313
:100F400020617267756D656E740000002DE9FC43C9
:100F500007466F293E6908BF082405D041F02000EC
:100F6000782814BF0A2410243C25D7E900236429DB
:100F700018BF69299046994605D1002B03D5D8F1B1
:100F8000000869EB4909B9F1000F08BFB8F1000F7B
:100F90000CD1386B50B9082C39D197F838000107BB
:100FA00035D530203B2586F83B0030E08DF8001029
:100FB000404649462246E31700F01EFD3032D0B2CB
:100FC0006D1E3A28019504DB9DF80000A0F1510147
:100FD0008A187255404649462246E31700F00CFD38
:100FE00080465FEA010908BFB8F1000F03D0F86836
:100FF00071198842DCD3082C09D197F83800010711
:1010000005D5705D302802D06D1E30207055C5F1B9
:101010003C02BA617119F960386B824208DA821AAF
:101020003A624FF6EF70398F01403987BDE8F3839C
:1010300000280ED597F8380000F01400102808D1C9
:101040007B6B7969386A5B1A1B1A9A1A002AC8BF27
:101050003A62BDE8F3832DE9D04306460F461446B5
:101060004FF00008DFF8509012E0E00707D5424645
:101070004B463046394600F0E9FB06460F464046EF
:10108000494642464B4600F0E1FB641080468946E3
:10109000002CEAD130463946BDE8D08302FCFFFF80
:1010A000FFFF0F800000E03F0000F07FA0860100FE
:1010B0000000F03F84D797410000244010B503465C
:1010C0000C461146A0689847A06020B1E06A401C19
:1010D000E062002010BD4FF0FF3010BDF8B50546AE
:1010E0000E4617461C4600205CB117F8011BB0687D
:1010F000A847B06030B1F06A401CF0620020641E66
:10110000F3D1F2BD4FF0FF30F2BD00007072696E96
:1011100074665F733A20256E20646973616C6C6F2E
:10112000776564007072696E74663A20626164204B
:10113000256E20617267756D656E74000000000099
:101140006E616E004E414E00696E6600494E46006B
:10115000300030B4002513E050F8042BD30744BF0F
:10116000A9F101039A18091F042942F8045BFAD275
:1011700013468C0744BF15809B1CC90748BF1D70D0
:1011800050F8041B0029E7D130BC7047C9B202787F
:101190008A421AB11CBF10F8012FF9E718BF0020CE
:1011A00070470268531C03601170704780B500B926
:1011B00006A005490B681BB122220021984701E0D7
:1011C00000F09DFC222002BD74190020636F6E7335
:1011D000747261696E742068616E646C65723A2025
:1011E000626164206D6573736167650000F10103DE
:1011F00010F8011B11B110F8011BFBE7C01A704772
:10120000C9B2830706D0521E22D310F8013B99427F
:10121000F7D11FE0083A13D302F1040241EA012199
:1012200041EA014150F8043B121F21BF4B40A3F19A
:10123000013C2CEA030C1CF0803FF3D0C9B2001F24
:10124000083210F8013B521E28BF91EA030FF8D86C
:1012500018BF0120401E70474AB1000011F8013B41
:10126000521E00F8013B1CBF11F8013BF8E7704724
:1012700010B5144600F002F8226010BDC1F30A5305
:1012800043B14A0012F5001F28D2A3F2FE32A1EBAF
:101290000251704750EA410C20D001F0004C31EA75
:1012A0000C01B1FA81F204BFB0FA80F3D2180B3A04
:1012B000B2F120032CBF00FA03F1914041EA0C0186
:1012C0003EBFC2F1200C20FA0CF319439040524269
:1012D00040F2FD33D21A01EB0351704700227047F0
:1012E0004FF4001C1CEB410F94BF1CEB430F09E0B3
:1012F00041EA030C50EA4C0C52EA0C0C03D299421E
:1013000008BF9042704714BF8B42824270472E0044
:101310004FF4001C1CEB410F94BF1CEB430F09E082
:1013200041EA030C50EA4C0C52EA0C0C03D28B42FB
:1013300008BF8242704714BF994290427047000034
:10134000124254D440F2FF7C1CEA11530FD0634583
:1013500031D09B1863453CBF01EB0251704701F04F
:10136000004141EA0C510020AFF30080704750EA81
:10137000410320D001F0004C91EA0C011CD0B1FADD
:1013800081F30B3B9A420DD9D21A994051EA0C01D4
:10139000C3F1200C20FA0CFC61449840531C40F22D
:1013A000FF7CD7E7914041EA0C01C2F1200C20FA02
:1013B0000CF3194390407047B0FA80F31533202B9B
:1013C000E0D3202AEED3203A203B9A4209D9D21A00
:1013D00000FA03F141EA0C010020531C40F2FF7CAB
:1013E000B8E700FA02F141EA0C01002070475242CE
:1013F00040F2FF7C1CEA11530DD06345DBD0B2EB09
:10140000030C3CBFA1EB025170470CF1010221EA31
:10141000035141F4801150EA410CCCD001F0004C52
:10142000352A27DC30B481EA0C01B2F1200309DA55
:10143000C2F12003044601FA03F5D0402843D1400D
:101440009C400CE0C3F12002450020FA03F418BFD1
:1014500044F0010421FA03F091400C43002174F19F
:10146000004550F1000051EB0C01244230BC7FF4E8
:101470007BAF70476146002076E70000C1F30A5356
:1014800040F2FE329B1A14DDD3F120034FEAE172E1
:1014900008DDC90241EA505141F00040D8408018AF
:1014A0005040704703F2E13010B1D24382F0004067
:1014B0007047002070470000C11768B14840401ACB
:1014C000B0FA80F29040D21CC907C2F5846241EAAA
:1014D000025202EBD02140057047000070B44FF07B
:1014E000004591EA030F40F10D836B40841A71EBC4
:1014F000030603D2001BB141121973414FF4001CC3
:101500001CEB410F34BF7CEB430442E00C0DA4EB19
:101510001356352E4FDC45EAC323DB0A45EAC121C9
:10152000C912B6F120050DDD63FA05F6EB4086EA37
:101530000305124218BF45F00105C01851F1000122
:101540000CD213E062FA06F5F2405540F3415A40DE
:10155000B340F3405A408018594107D349085FEA25
:1015600030005FEA350528BF45F0010501F580111F
:10157000420875F1004250F1000041EB04514E0069
:1015800016F5001F70BC38BF70470020090D090513
:1015900070471CEB410F10D252EA43060BD0BCEB54
:1015A000410F05D80C0DAB43661E342EB6DD02E0AC
:1015B000AB438018594170BC704770BC7047000045
:1015C000F0B540F2FF7581EA030C0CF0004C15EA0F
:1015D00011541DBF15EA1357AC42AF42E5E0BC41C0
:1015E000C1F31301C3F31303801A994143F4801329
:1015F00004D2641E4000494180185941C90241EAA1
:101600005051B1FBF3F603FB1611A2FB0675D7EBA5
:10161000C020A94102D2761E80185941C90241EA70
:101620005051B1FBF3FE03FB1E11A2FB0E75D7EB6D
:10163000C020A94103D2AEF1010E801859418902A0
:1016400041EA9051760546EA8E2EB1FBF3F603FB94
:101650001611A2FB0675D7EB8020A94102D2761E97
:1016600080185941C90241EA50514EEA060EB1FBB9
:10167000F3F603FB1611A2FB0675D7EBC020A941B8
:1016800002D2761E80185941C90241EA5051B1FB7D
:10169000F3F703FB1711A2FB0735D3EBC020A941D9
:1016A00067F100070CBF004247F0010766F3D5273A
:1016B0004FEA1E31B80814F5806412DDBD0775F1DC
:1016C000004250EB0E5051EB045111F5801F5CBFEE
:1016D00041EA0C01F0BD4CF07F6141F0E041002097
:1016E000F0BDBD076D0840EA0E5041F48011D4F101
:1016F0000104B4F120060ADAC4F120060200E04039
:1017000001FA06F3E1401843B24015430EE0342CD1
:1017100013DCC6F1200445EA40056D0820FA06F204
:10172000154321FA06F0A1400D43002175F1004256
:1017300050F1000051EB0C01F0BD00205FEA0C01FC
:10174000F0BDCFB992185B41B3FA83F704BFB2FA88
:1017500082F6BF190B3FB7F120062FBF02FA06F33E
:10176000BB40C7F1200622FA06F638BF3343BA4021
:101770001CB1E419641E33E77F4231F00041B1FA35
:1017800081F404BFB0FA80F6A4190B3CB4F1200632
:101790002FBF00FA06F1A140C4F1200620FA06F698
:1017A00038BF3143A0403C1B1AE7AC421ABF05EAE0
:1017B0001357AF4212E050EA41061CBF52EA4306FB
:1017C000BFE750EA4107304661461CBF41EA055178
:1017D000F0BD52EA430C08BFC143F0BD00204FF4F6
:1017E000001616EB410F98BF16EB430F08BF16EB20
:1017F000410F24BFC14305E016EB430F0CBF614608
:101800004CEA0551F0BD0000400D491840EA812026
:101810000CD2490DA1F58061491C40F0004005DB68
:10182000D1F11F0154BFC840C01770470020704756
:10183000014648B1B0FA80F18840C91CC1F5846105
:10184000090501EBD021400570470000B0B581EAE1
:10185000030C0CF0004C40F2FF7515EA11541DBF4B
:1018600015EA1357AC42AF4239E0E41923EA455375
:1018700043F48013C90241F0004141EA505EC702BF
:101880001100A7FB020200284FF00000EEFB012030
:101890004FF00001E3FB072118BF42F0010240189E
:1018A00000214941E3FB0E01A4F580640F0302D23D
:1018B00052004041494154F101046CDD470872F186
:1018C000004250F1000051EB0451A1F580115CBFC2
:1018D00041EA0C01B0BD4CEA05510020B0BD05EA5B
:1018E0001357AC4214BFAF4241E050EA410E1CBF57
:1018F00052EA430E02E061460020B0BD24423C445F
:101900001BD15FEA070EF6D0090302BF0146002093
:10191000AEF1140EB1FA81F7AEEB070401FA07FE3F
:101920000C37C7F1200100FA07F7C8404EEA000E55
:1019300023EA455343F48013A2E733F00043B3FA9C
:1019400083F704BFB2FA82FE77440B3FE41BB7F182
:10195000200E2FBF02FA0EF3BB40C7F1200E22FA71
:101960000EFE38BF43EA0E03BA40641C82E750EA19
:10197000410E14BF52EA430E6FF000014FF40017FE
:1019800017EB430F8ABF194617EB410FB5E74CEA37
:1019900005510020B0BDD4F10104B4F120070FDAE5
:1019A000C4F12007520828BF42F0010210FA07F5DF
:1019B00001FA07F7E1BF2A43E0403843E1400FE076
:1019C000352C98DCC7F1200452EA400220FA07F2D5
:1019D00018BF42F0010231FA07F0A1400A4300218A
:1019E00072F1004250F1000051EB0C01B0BD00005B
:1019F00000487047BC060020D3BBD9B1B2F5803F88
:101A00005BD2022A1ED98C46B1FBF2F102FB11C354
:101A10001B0443EA1043B3FBF2FC02FB1C3380B20D
:101A200040EA0343B3FBF2F002FB103240EA0C4001
:101A300000237047022A05D98446B0FBF2F002FB6E
:101A400010C270474AB105D100F0010249085FEAAF
:101A50003000704700220023704700F009B90B00E6
:101A60000200002100207047F7D3002200237047B6
:101A7000904271EB030CF2D370B5B1FA81F4B3FA72
:101A800083F52C1BA340C4F1200532FA05F633433D
:101A9000A2405FF00046E64002E05B085FEA3202E7
:101AA000841A71EB030524BF204629467641F4D3FE
:101AB00002000B003000002170BD70B5B1FA81F456
:101AC000B2FA82F5C4F120046419B4F12006DAD325
:101AD000B2405FF00044F440002502E052085FEAA3
:101AE0003303C61A71EB020E24BF304671466441BF
:101AF0006D41F3D302000B002000290070BD0120CE
:101B000000F0B8B8841A71EB030604D26E40001BD3
:101B1000B141121973414FF4001C1CEB410F34BF4B
:101B20007CEB430683E00C0DA4EB1356362E00F33A
:101B30007C80012E45EAC32341DC43EA525312BFA5
:101B4000D20292025B08240545EAC12141EA5051C4
:101B5000D2EBC020994125D407D1B0FA80F610FA13
:101B600006F162D00020203608E0B1FA81F6B140DB
:101B7000C6F1200220FA02F21143B0404FEAF47499
:101B8000B4EB465434F001064FEA74040AD8D6F593
:101B90000016760D04F00044F04061FA06F2504061
:101BA000F1404840C00A40EA415021F0004128BFBE
:101BB0005FEA500550F1000044EBD12135E0DB0A2B
:101BC00045EAC121C90AB6F120050EDD42EA02420A
:101BD000120CC5F1200603FA06F6EB4042EA0605B0
:101BE0006D42984161F100010DE062FA06F5F240A4
:101BF000554063FA06FC82EA0C02F3405A406D42FB
:101C0000904161EB030111F4801F05D1641E620550
:101C100002D06D004041494121F48011430875F123
:101C2000004350F1000041EB045170BC70471CEBC5
:101C3000410F15D223F0004352EA43060BD04FEA7E
:101C40004C0CBCEB410F04D80C0D661E342EB7DDD6
:101C5000EBE7801A994150EA410608BF0021E4E70A
:101C600008BF1CEB430F28BF6FF00001DDE7000049
:101C70007047000080B5AFF30080024A11001820C1
:101C8000ABBEFBE72600020038B5040001D10120FD
:101C900032BD04F17805686808B900F017F800F063
:101CA0001AF808B100F031F800F02CF8012804D03F
:101CB00000F004F821F02A0116E032BD20684168E6
:101CC00021F49041416020688168704700212970AB
:101CD000204600F06CBE2420686020680168490836
:101CE00049000160606A7047816000F004F8BDE857
:101CF000324000F08CBB2068016841F001010160B6
:101D000020467047204600F029BA204600F01CBB50
:101D10002DE9F843054605F150060C46F06A2028E7
:101D2000174699463ED10CB1380001D101203AE066
:101D3000002070632121F16200F020FF378080468F
:101D40007780A868B0F5805F04BF286900281ABFB3
:101D5000204600272746044611E00022802100F09B
:101D600024F8D8B92868002C12BF14F8011B37F8E2
:101D7000021BC1F3080101857088411E7180434632
:101D80007088CDF800900028E7D10022402100F0B3
:101D90000CF818B92020F062002004E02020F06246
:101DA000032000E00220BDE8F283284600F078BB63
:101DB00038B50346D3F8800020280AD109B11000B5
:101DC00001D1012032BD00F006F8BDE8384000F036
:101DD000ACBB022032BD00201866DFF864451868ED
:101DE000A0420CD04068040209D5186850E8004FA2
:101DF000054644F0806445E800400028F5D11846C7
:101E0000704738B50446E06FD4F8805021688A687E
:101E1000110613D5212811D100F031F800F081F915
:101E2000FAD1206F38B100F090FF20B1206F01F09F
:101E300038F8202819D0204600F014FC206881686A
:101E400048061AD5222D18D100F019F821F04001CA
:101E500000F069F9F8D1606F60B100F076FF48B129
:101E6000606F01F01EF8202804D11020C4F884000F
:101E7000032032BD204600F002FC002032BD206865
:101E800000F1080151E8001F00F1080370472868BD
:101E900000F1080151E8001F490800F1080349005A
:101EA00043E800100028704743E8002000287047EE
:101EB000F8B5054640F60F002B68D9691A689E6888
:101EC000084005F158040BD1880600D5970640F16B
:101ED0007C802169002977D02846BDE8F440084776
:101EE000F00703D4DFF85C743A426ED0C80707D518
:101EF000D70505D501201862E36A43F00103E362C8
:101F0000880708D5F30706D52F6802203862E06AF3
:101F100040F00400E062480708D5F30706D52F68B3
:101F200004203862E06A40F00200E06208070AD547
:101F3000930601D4F00706D52E6808233362E06AC1
:101F400040F00800E062080509D5530107D52E6866
:101F50004FF400603062E06A40F02000E062E06A26
:101F6000002831D0880605D5910603D5216909B12D
:101F700028468847E06A29688A68510602D410F02A
:101F8000280F1CD000F0CFFA28688168480611D5C8
:101F900000F0CDF8FCD1E06960B10FF6510181632A
:101FA000E06900F0F5FE00280ED0E069816BBDE825
:101FB000F44008472846BDE8F24000F0B4BF284688
:101FC00000F0B1FF0020E062F1BDA06801287DD1E2
:101FD000C8067BD5D70679D5102018622A682188D3
:101FE000906842063ED5E2691368586880B20028BE
:101FF00030D088422EDA6080106801688A0623D4C7
:1020000000F0A3F821F4807100F046FAF8D1FFF750
:102010003EFFFCD1286800F1080151E8001F00F1E3
:10202000080321F0400100F07EF8F3D12020A062E7
:102030000021A16000F089F821F0100100F02CFAD5
:10204000F8D1E06900F081FE0220E060218860881C
:10205000091A35E0884263D11A68900660D50222D9
:10206000E2602EE062886088891A00281CBF88B26E
:10207000002855D0286850E8002F034622F49072BB
:10208000FFF712FFF6D1286800F1080252E8002F8E
:10209000520800F10806520046E800200028F2D15C
:1020A0002020A0620022A26022612A6852E8002F4C
:1020B0002B6822F01002FFF7F7FEF6D10220E06055
:1020C00089B22846BDE8F44000F017BFC80209D520
:1020D000760207D54FF4801018622846BDE8F2401A
:1020E00000F09ABF080607D5130605D56169B9B196
:1020F0002846BDE8F4400847480611D551060FD5DB
:1021000000F023F821F0400100F0C6F9F8D12020BA
:102110006062002161612846BDE8F24000F07DBFA9
:10212000F1BD21F0800143E80010002870472968C4
:1021300001F1080252E8001F286800F1080321F0AD
:10214000400143E8001000287047286850E8001F4D
:102150000246704744E8003000287047F8B504464E
:10216000DFF8CC072268DFF8CC771368A16803405A
:1021700020690B4361690343E0690B430343136028
:1021800000255168E06821F4405101435160A36982
:102190006B498A421CBF206A03439668DFF89807A0
:1021A00026F4306633439360BA424FF40043DFF8BD
:1021B0008C6732D1366806F00306032E3BD8DFE881
:1021C00006F0027461760127E169B1F5004F4FF620
:1021D000F07640F08C805FB1012F00F08080022FFC
:1021E0000AD0042F00F07E80082F00F07E80A0E04F
:1021F00001F03CFA00280FD061684A0802EB400267
:10220000B2FBF1F0A0F11001B142F0D20640C0F3F0
:10221000420006432068C6608CE0DFF82477BA42AB
:1022200021D1366816F00C063DD0042E3DD0082E84
:1022300028D00C2E3BD010278A42C5D137B1022FAF
:1022400008D0042F35D0082F36D072E001F00EFAF6
:1022500000286FD0626802EB4201884269D3130301
:1022600083422BD265E0DFF8DC76BA420CD13668C7
:1022700016F0300617D0102E17D0202E02D0302E98
:1022800015D0D8E70227D7E78A42D4D1366816F4AA
:10229000406608D0B6F5806F07D0B6F5006FF1D074
:1022A000B6F5406FECE70027C6E70427C4E7082728
:1022B000C2E701F092F9CBE71846CBE7010E5608CA
:1022C00016EB002069410023FFF796FBA0F5407153
:1022D000DFF8742691422CD22168C8602AE001F010
:1022E000CDF987E701F079F984E7184684E747B12B
:1022F000012F16D0022F07D0042F15D0082F16D08B
:1023000017E001F0B3F9A8B1616800EB5100B0FB30
:10231000F1F0A0F11001B1420BD2226880B2D0607E
:1023200008E001F0ABF9EEE701F057F9EBE71846EA
:10233000EAE701250020A066E0662846F2BD00001D
:10234000008000402001000490F824100A0706D500
:1023500002685368416B23F400430B43536090F8C9
:102360002410CA0706D502685368816A23F4003333
:102370000B43536090F824108A0706D5026853680F
:10238000C16A23F480330B43536090F824104A074A
:1023900006D502685368016B23F480230B43536016
:1023A00090F82410CA0606D502689368816B23F45E
:1023B00080530B43936090F824108A0606D5026878
:1023C0009368C16B23F400530B43936090F824107F
:1023D0004A0610D502685368016C23F480130B433E
:1023E0005360036CB3F5801F05D15368416C23F42F
:1023F000C0030B43536090F824100A0606D5016809
:102400004A68806C22F4002202434A607047F8B5A3
:10241000054605F178040020E0606FF07E4700F08B
:10242000ADFB0646286801680A0711D500973346B8
:1024300000224FF40011FFF7B8FC48B1FFF785FE0A
:1024400021F0800100F028F8F8D12020606015E02C
:10245000286801684A0715D50097334600224FF4D3
:102460008001FFF7A2FC68B1FFF76FFE00F012F8E1
:10247000FAD1FFF70CFDFCD12020A06000212170D3
:102480000320F2BD20206060A060002028666866FE
:102490002070F2BD21F4907142E8001000287047CE
:1024A0002DE9F041069C05460E4690461F462868D9
:1024B000C1693140B1420CBF0120002040452FD1FD
:1024C00014F1010FF3D000F059FBC01B844200D37C
:1024D00014B90320BDE8F081286801684A07E6D5F1
:1024E000802E18BF402EE2D0C1690A070DD4C16901
:1024F0000A05DCD54FF4006100F014F805F178000E
:102500002021C16000220270E3E7082100F00AF8F0
:1025100005F178000821C160002202700120D9E78E
:102520000020D7E701622846A9E020B50346002035
:10253000596503F158010A804A800861FF229868B2
:10254000B0F5805F04D1186990B940F2FF120FE036
:1025500018B9186960B17F2007E0B0F1805F06D13B
:10256000186908B97F2203E03F20888001E000223B
:102570008A800020C86222228A62186800F108025C
:1025800052E8002F00F1080542F0010245E8002062
:102590000028F2D19868B0F5805F04BF1869002860
:1025A0000DD10FF2A9220A61186850E8001F0246F7
:1025B00041F02001FFF770FFF6D1002020BD0FF29F
:1025C0003D220A6118690028EED0196851E8001F01
:1025D0001A6841F49071FFF75FFFF6D1EDE770B52F
:1025E000044604F15805134661652B800020E8621B
:1025F0002221A962E869D8B10FF2ED01C1620FF2A0
:102600008110E9690863E9690FF2911048630020BD
:10261000E96988632668626DE86906F1240100F0C3
:102620005FFB28B11020E8622021A962012070BD63
:10263000206940B1216851E8001F226841F480718F
:10264000FFF72AFFF6D1FFF71AFC41F00101FFF76F
:102650006AFDF8D1FFF713FC41F04001FFF763FD7D
:10266000F8D170BD016851E8002F0B4622F0C0027E
:1026700043E800210029F5D12021C167704710B53A
:1026800000F00EF8FCD100F015F8FCD1016E00F05E
:102690001EF82021C0F8801000220266826610BD5C
:1026A000016851E8002F0B4622F4907243E80021A4
:1026B00000297047016801F1080252E8002F520812
:1026C00001F10804520044E8002100297047012963
:1026D00009D1026852E8002F036822F0100243E893
:1026E00000210029F5D1704738B5826A0068036877
:1026F0009C0602F158012ED400204880136853E84C
:10270000003F146823F48073FFF724FDF6D11068AE
:1027100000F1080353E8003F5B0800F108055B0087
:1027200045E800300028F2D1106800F021F823F0CD
:10273000400345E800300028F6D1202088628B68ED
:10274000012B08D1106850E8003F044623F0100325
:10275000FFF700FDF6D10020C8608B68012B02D185
:1027600009881046F3E0BDE83240104600F0B0BBE7
:1027700000F1080353E8003F00F10805704700002E
:10278000806A00F158010122CA608B68012B18BFD2
:1027900000F0E4BF0988490800F0AFBBF8B5846ACF
:1027A00004F17C0504F1520728686E6821688A6884
:1027B000110606D5212804D1002038802046FFF7D5
:1027C00051FF21688868410606D5222E04D10020D9
:1027D00038812046FFF753FFA86840F01000A8603A
:1027E0002046BDE8F24000F09EBB0000806A00F188
:1027F000520100220A810A8000F095BB38B500F032
:102800004DF81ED18B8C9188446D0B402370416D27
:102810004B1C00F049F818D100F04DF800F060F8BA
:10282000FCD100F06AF80BD10023936000F04EF861
:10283000FCD10168CB69DC0644BF10230B6285E044
:1028400089E0088B40F00800088331BD38B500F0FE
:1028500025F81ED18B8C9188446D0B402380416DEF
:102860008B1C00F021F818D100F025F800F038F8A2
:10287000FCD100F042F80BD10023936000F026F861
:10288000FCD10168CB69DC0644BF10230B625DE01C
:1028900061E0088B40F00800088331BD00F1580268
:1028A0000168936A222B7047436551884B1E538001
:1028B000518800297047036853E8003F046823F4F7
:1028C000907344E800310029F5D17047016851E860
:1028D000003F0C4623F0100344E800310029704704
:1028E000016801F1080353E8003F5B0801F10805A6
:1028F0005B0045E8003100297047202191620023E8
:102900001361D3600168094B99420CD049680B02EE
:1029100009D5016851E8003F0C4623F0806344E884
:1029200000310029F5D191680129704700800040ED
:10293000F369FFEF003801400024F40088100240E2
:10294000004400400048004000FD0F001188BDE831
:10295000344000F0D2BABDE8324000F0B9BA00000D
:1029600080B57D487D4901604FF4165200F00EF8A5
:1029700000B118E001BD80B579487A4901604FF493
:10298000E13200F003F800B10DE001BD00230C219D
:1029900042608360C360036141618361C36103621C
:1029A0004362FFF771B9BDE8014000F029BFF8B5F7
:1029B0009EB0044614220021684600F023FF6022E6
:1029C000002106A800F01EFF20686449664D674E8E
:1029D000674F884241D10122002106920E9106A83C
:1029E00000F01AFF08B100F00BFF786940F4804056
:1029F0007861786900F4804005900598396841F065
:102A0000010139604FF4C0613A6802F00102059299
:102A10000222059800F06AF84FF0904001F0D2F8D9
:102A20000221716005F12800306000228021B2602F
:102A3000F26031617261B261F2613262304600F07F
:102A4000A3F808B100F0DCFE6667B4620022002142
:102A5000252001F025FA252044E04249884243D14F
:102A6000042200210692109106A800F0D5FE08B1BC
:102A700000F0C6FEF86840F48020F860F86800F4C2
:102A8000802005900598396841F0040139604FF4C1
:102A900040613A6802F00402059202220598354826
:102AA00000F024F801F08EF80220F0640021316576
:102AB000002070658021F06530667066B066B16593
:102AC000B56406F1480000F05FF808B100F098FE28
:102AD00006F148006067346700220021272001F0DA
:102AE000DFF9272001F0FAF91FB0F0BD0091019243
:102AF0000021029103220721049103926946704745
:102B000010B50446154A20681B4990420ED18868CA
:102B100020F4804088604FF4C0614FF0904001F095
:102B200020F9606F00F083F825200FE00D4A9042F5
:102B300010D1086820F4802008604FF440610D48EF
:102B400001F00FF9606F00F072F82720BDE8104027
:102B500001F0CFB910BD00004C1400200038014036
:102B6000D41400200048004030000240BC13002074
:102B70004C100240000800485810024001484068CC
:102B8000704700BF00000020F0B508B90120F0BD7B
:102B900005684C4E4C4CB54200F1240308D24B4919
:102BA0004A191427B2FBF7F292001A62DC6108E0BE
:102BB00047494A191426B2FBF6F2920045491A62B7
:102BC000D96102225A702E688168C2686FF30E16AE
:102BD0000E430169164342690E4381691643C26977
:102BE0000E43016A16430E432E608268B2F5804F91
:102BF00017D0DA690F21A2420CBF374A374A14684E
:102C000093F8205005F01C05A94024EA0101116049
:102C1000116893F82040406804F01C04A040014370
:102C2000116000209861012159701870F0BD70B5D5
:102C300008B9012070BD0168224D0A68520852008F
:102C40000A6000F1240103681F4AAB4208D21F4802
:102C5000C4181426B4FBF6F4A4000C62CA6108E0A0
:102C60001B48C4181425B4FBF5F4A40019480C62E1
:102C7000C86100241C60012000F00CF998406060DD
:102C80000F20CB69934209D1134A146891F8203080
:102C900003F01C03984024EA000008E00F4A136880
:102CA00091F8204004F01C04A04023EA00001060CA
:102CB00000208860C86008614861886148700870B9
:102CC00070BD00000804024000000240F8FFFDBF94
:102CD000F8FBFDBF00040240A8000240A804024027
:102CE000F8B5044604F1240600253078012801D106
:102CF0000220F2BD012030707778012F21D102200F
:102D00007070B561206807687F087F000760204603
:102D100000F0C9F82168F06820B10A6842F00E029C
:102D20000A6008E0086820F0040008602068016874
:102D300041F00A0101602068016841F00101016071
:102D400001E0357002252846F2BD00F124014A78E1
:102D5000022A05D00420886100220A7001207047F1
:102D60000268136823F00E031360006802685208BB
:102D700052000260012091F82020CB6902F01C0271
:102D8000904058600022012048700A70002070476F
:102D900038B500F1240100244A78022A03D0042027
:102DA0008861012417E00268136823F00E031360A2
:102DB000026815686D086D001560012291F82030D9
:102DC000CD6903F01C039A406A6001224A700C70BE
:102DD000496901B18847204632BDF8B500F12401A8
:102DE0000423CA6914680268156891F8206006F027
:102DF0001C0603FA06F73C4210D06F070ED5146884
:102E0000A50603D4146824F00404146000F03AF812
:102E1000C968002935D0BDE8F4400847022303FA09
:102E200006F73C4213D0AF0711D51468A50605D4A8
:102E3000146824F00A04146001224A7000F022F899
:102E400000220A708968E1B1BDE8F4400847082310
:102E500003FA06F6344214D02B0712D5146824F076
:102E60000E041460012200F015F89A4062600122FD
:102E70008A614A7000220A70096911B1BDE8F44004
:102E80000847F1BD91F82020CC6902F01C02934064
:102E90006360704791F82030CC6903F01C037047E1
:102EA0000000C06B704770B590F84450066C012468
:102EB00005F01C05AC4074600468636080681028ED
:102EC00002D1A260E16070BDA160E26070BD00004F
:102ED00010B50446304920680A68904204BF0120BA
:102EE00001F033F92D4821680268914204D1BDE810
:102EF0001040012001F025BA10BD38B50D4604463A
:102F0000254920680A68904204BF284601F01DF94F
:102F1000224920680A68904204D12846BDE8324020
:102F200001F00FBA31BD10B51B4A006813681C4987
:102F30001A4A984204BF00240C701368984204BFD8
:102F400002200870BDE810400221164801F01CBAAA
:102F50001CB5134C14A320780090002200210320FC
:102F600001F024FA207868B901F0ECF86088401C80
:102F7000608080B2142803DB0020608001F0C7F875
:102F800001F0C7F820782178022903D101F0D8F99F
:102F900001F0C6F9207813BDD41400204C14002091
:102FA0006819002030000020755F6170705F636FEA
:102FB0006D3A2075617274202564206572726F729B
:102FC000210D0A0010B50446D4F88000202821D134
:102FD00009B1100001D1012010BD0120206600239D
:102FE00063662046FFF7FBFA010011D1206E01282D
:102FF0000DD1206810220262226852E8002F236857
:1030000042F0100243E800200028F5D100E0012141
:10301000084610BD022010BD704770472DE9FC47DF
:10302000050065D0DFF8F476DFF80067BC68F86863
:1030300000F003082878C10604F00C0448D524B138
:103040000C2C08BFB8F1010F2CD13868810702D5CC
:10305000A86900284CD0396808074EBF39687168E4
:103060000909286A01F0F001814206D200F01BFB39
:1030700000283DD100F001FA07E000F0FEF924B984
:10308000286A00F010FB002832D100F0A6FABA68D6
:1030900000F099FADFF88C06006801F057FA010099
:1030A00016D0E4E1A86928B3396841F0010139601C
:1030B000FFF764FD81463868810707D4FFF75EFD9E
:1030C000A0EB09000328F6D30320D0E100F0D5F9E6
:1030D0002878C10755D5082C04D00C2C08BFB8F1AE
:1030E000030F17D1386881034BD56868002848D191
:1030F0000120BCE138684008400000F0D3F9814667
:1031000038688107E4D5FFF739FDA0EB09000328F3
:10311000F6D3D9E76868B0F5803F04D1386840F449
:103120008030386011E0B0F5A02F386806D140F447
:1031300080203860396841F4803105E020F4803027
:103140003860396821F480213960686860B1FFF720
:1031500015FD81463868810313D4FFF70FFDA0EBFE
:1031600009006528F6D3AFE7FFF708FD8146386808
:10317000810306D5FFF702FDA0EB09006528F6D311
:10318000A2E72878810713D5042C04D00C2C08BFA3
:10319000B8F1020F22D13868410502D5E86800284D
:1031A000A6D07868296920F0F85040EA016078607C
:1031B0002878010742D56869002870682FD040F050
:1031C00001007060FFF7DAFC80467068810735D433
:1031D000FFF7D4FC00F04DF9F7D375E7E86878B154
:1031E000396841F480713960FFF7C8FC804638685F
:1031F0004105D6D4FFF7C2FC00F03BF9F7D363E7F3
:10320000386820F4807000F04DF980463868410538
:10321000CED5FFF7B3FC00F02CF9F7D354E7400804
:1032200040007060FFF7AAFC80467068810705D5F2
:10323000FFF7A4FC00F01DF9F7D345E72878410714
:1032400067D5B86DC1004FF000080AD4B86D40F0E2
:103250008050B8654FF00108B86D00F080500090C4
:103260000098DFF8CC94D9F80000C10513D4D9F840
:10327000000040F48070C9F80000FFF77FFC824630
:10328000D9F80000C10506D4FFF778FCA0EB0A00CE
:103290000328F5D318E7A868012804D1306840F066
:1032A0000100306010E00528306806D140F00400CD
:1032B0003060316841F0010105E0400840003060B5
:1032C000316821F004013160A86841F2893960B1A8
:1032D000FFF754FC82463068810713D4FFF74EFC99
:1032E000A0EB0A004845F6D3EEE6FFF747FC82461E
:1032F0003068810706D5FFF741FCA0EB0A0048457E
:10330000F6D3E1E6B8F1000F03D0B86D20F080509D
:10331000B8652878810621D5686A0028B0680ED083
:1033200040F00100B060FFF729FC8046B0688107DB
:1033300014D4FFF723FC00F09CF8F7D3C4E6400850
:103340004000B060FFF71AFC8046B068810705D5E1
:10335000FFF714FC00F08DF8F7D3B5E6A86A002853
:1033600000F0848002286DD1F868EA6A00F0030159
:10337000914201BF00F070012A6B521EB1EB021F97
:103380001BD16A6B00F4FE41B1EB022F02BF00F0CB
:103390007841AA6BB1EBC26F0FD1EA6B520800F40F
:1033A000C001521EB1EB425F07D1296C490800F001
:1033B000C060491EB0EB416F40D00C2C43D0386840
:1033C00041013FF595AE00F06AF804463868810186
:1033D00005D5FFF7D3FB001B0328F7D374E6F86885
:1033E000DFF85013EA6A0840296B1043491E40EA8F
:1033F0000110EA6B696B520840EA0120296C521EE9
:10340000490840EA4250491E40EA4160A96B40EA3F
:10341000C160F860386840F080703860F96841F049
:103420008071F960FFF7AAFB0446386881011DD45A
:10343000FFF7A4FB001B0328F7D345E6386881019A
:1034400014D4E7E70C2C3FF453AE00F028F8044600
:103450003868810105D5FFF791FB001B0328F7D3DE
:1034600032E6F868DFF8D0120840F8600020BDE8C6
:10347000F687A0EB080003287047386840F0080082
:1034800038603968286A21F0F001014339607968B1
:10349000E86921F47F4141EA00217960704738688A
:1034A00020F080703860FFF769BB2DE9F04104001F
:1034B000884655D0DFF88462306800F00700404548
:1034C00002D200F06FF84BD12078DFF8505281071C
:1034D00006D5A068A96801F0F001814200F06CF8FF
:1034E0002078C1072AD56068032802D129688A019B
:1034F00008E0022802D129688A0303E0002829682D
:1035000002D18A0702D42BE04A0529D5A968890887
:1035100040EA8100A860FFF731FB0746A8686168B0
:1035200000F00C00B0EB810F08D0FFF727FBC01BA9
:1035300041F289318842F1D3032031E020788107BC
:1035400006D5A068A96801F0F001884200F034F8BF
:10355000306800F00700804504D200F023F801D065
:1035600001201DE02078410705D5AA68E06822F413
:10357000E0620243AA602178080706D5A96820699D
:1035800021F4605141EAC001A96000F026F8AA6860
:1035900000F019F8BDE8F0416248006800F0D6BFBD
:1035A000BDE8F0813168C90848EAC101316030687E
:1035B00000F007004045704704D2A96821F0F001EF
:1035C0000843A86070475E49C2F30312895C544AFD
:1035D00001F01F01C8401060704770B54F4A5A4B48
:1035E0009068D6680025002110F00C0006F0030654
:1035F000564C03D00C2812D1012E1AD115682E0773
:1036000004D4494D2E68C6F3032502E01568C5F3BE
:1036100003154F4E56F8255048B9294624E0042892
:1036200008BF214620D008281ED119461CE00C28CE
:103630001AD1D06800F00300022803D0032808BF85
:103640001D4600E02546D168D068D268C0F3062048
:103650004543C1F30210C2F34161401C491CB5FB54
:10366000F0F04900B0FBF1F1084670BD2C48354A36
:10367000006813683749C3F3022206E02848314A3C
:10368000006813683349C3F3C222895C01F01F014B
:10369000C8407047244908680A6842F400020A607A
:1036A00000F07E4070477CB52B4E05463068002404
:1036B000C10002D500F06CFF0EE0306840F0805091
:1036C0003060316801F080510091009800F060FF97
:1036D000316821F080513160B0F5007F04D1802D38
:1036E0000CD9A12D09D304E0802D88BF032405D86F
:1036F00001D1022402E0702D00D101240F4801689D
:10370000C90844EAC1010160006800F00700A04256
:1037100001D0012076BD002076BD000000100240DF
:103720002C0000200800002094100240901002405D
:10373000007000408C809D01FCFFEEFE00200240E6
:10374000707800080810024000127A000024F4008B
:10375000987700085C7C000858100240704780B5DC
:1037600000F058FF00F00FF800F064FF00F0B2FF27
:1037700000F0D8FFFFF7F4F8FFF7FDF801F0FEF8CE
:1037800000F046FCFEE780B596B0442105A801F0A4
:103790007BF91421684601F077F94FF4007000F0CE
:1037A000FDFE08B100F02CF81821059101226021DE
:1037B0000A920B920D91002201210C92109111910D
:1037C000022228210F9212910722022113921491B2
:1037D000159105A8FFF722FC08B172B6FEE70F208D
:1037E000032100900191002202920392049204218D
:1037F0006846FFF75AFE08B172B6FEE717B000BD83
:1038000072B6FEE710B5044610460A460146204649
:1038100001F03EF9204610BD2DE9FC470646002484
:103820003068DFF878730105A0461BD5706C58B17D
:10383000B0F5000F03D0B0F5400F09D010E03A68A2
:1038400042F480323A6004E0002100F027F9044697
:103850003CB9F96F706C21F440010143F96701E054
:103860000124A046306881032AD5F86CC1004FF0CE
:1038700000090AD4F86C40F08050F8644FF0010958
:10388000F86C00F0805000900098DFF8145328681E
:1038900040F480702860FFF771F982462868C105FE
:1038A0006FD4FFF76BF9A0EB0A000328F6D30324CB
:1038B000A046B9F1000F03D0F86C20F08050F864F6
:1038C0003078C10705D5FA6F306A920840EA820263
:1038D000FA673178880705D5F96F706A21F00C0115
:1038E0000143F9673178480705D5F96FB06A21F0CF
:1038F00030010143F9673178880605D5F96FF06A20
:1039000021F440610143F9673168880505D5F96FF5
:10391000F06B21F440210143F9673168480505D572
:10392000F96F306C21F440110143F9673178480692
:1039300005D5F96F306B21F440510143F9673178B7
:10394000080605D5F96F706B21F440410143F96712
:103950003168C80505D5F96FB06B21F440310143DA
:10396000F9673168880444D5F96FB06C21F0406183
:103970000143F967B06CB0F1006F32D100F088F804
:1039800037E0002C94D1DFF81C42206810F440701E
:103990001CBFF16D88420BD02068216841F4803152
:1039A000216020F44070226822F48032226020607E
:1039B000C0070FD5FFF7E2F805462068810709D454
:1039C000FFF7DCF8401B41F289318842F5D34FF014
:1039D00003086EE72168F06D21F440710143216016
:1039E00067E7B0F1806F04D100F057F8010018BF0D
:1039F00080463068010314D5FA6FF06C22F0406203
:103A00000243FA67F06CB0F1006F02D100F040F8A9
:103A100007E0B0F1806F04D100F03FF8010018BF5B
:103A200080463068410314D5FA6F306D22F0406251
:103A30000243FA67306DB0F1006F02D100F028F850
:103A400007E0B0F1806F04D100F027F8010018BF43
:103A50008046306841040FD5FA6F706D22F04052F5
:103A60000243FA67716DB1F1805F05D1022100F068
:103A700015F8010018BF80463068010405D5FA6FBB
:103A8000B06D22F080420243FA674046BDE8F687F7
:103A9000386840F48010386070470121301DFFE71E
:103AA0002DE9F0410546404F28680C46F96800268C
:103AB00011F0030F0DD0F96801F00301814237D1F5
:103AC000B0B3F8686968C0F30210401C884213D094
:103AD0002EE0012804D02BD3032823D01ED327E0C7
:103AE0003A68910724D5FA68696822F07302104396
:103AF000491E40EA0110F860386820F080603860A4
:103B0000FFF73CF880463868010113D5FFF736F817
:103B1000A0EB08000328F6D303263BE039684A05EA
:103B2000E1D405E039688A03DDD439684A03DAD480
:103B300001262FE0A96844B93A691C48EB680240A5
:103B400042EA012141EAC3610FE0012C3A6906D142
:103B50002B69174800F030F841EA435105E06B69E2
:103B6000144800F029F841EA43613961386840F0AF
:103B700080603860FFF702F804463868010105D418
:103B8000FEF7FCFF001B0328F7D3C5E73869A969D6
:103B9000084338613046BDE8F08100000C10024057
:103BA000007000409010024000100240FF80FF07AC
:103BB000FF809FFFFF80FFF902405B0842EA01217E
:103BC0005B1E70472DE9F84F0027A14AA14B4FF02B
:103BD0000F0805460E4634E09F4CA54214BF07244B
:103BE00004248C409D4944EA0E0441F82C40C14312
:103BF000946801EA040C7468E40248BF40EA0C0CC3
:103C0000C2F808C0D46801EA040C7468A40248BF72
:103C100040EA0C0CC2F80CC0546801EA040C746849
:103C2000A40348BF40EA0C0CC2F804C0146801EABF
:103C3000040C7168C90348BF40EA0C0CC2F800C00C
:103C40007F1C316831FA07F000F089800124BC4004
:103C500014EA0100F4D04FEA470C032101FA0CF1F9
:103C60006FEA010E716801F00309B9F1010F1CBF81
:103C700001F00301022912D1A968D6F80C900EEACE
:103C8000010109FA0CF949EA0101A960696821EA10
:103C900004047168C1F30011B9400C436C60B900B1
:103CA000347904F00304032C21D0EC68D6F8089092
:103CB0000EEA040409FA0CF949EA0404EC603479C8
:103CC00004F00304022C12D1FC0805EB840401F07B
:103CD0001C09D4F820A008FA09FB2AEA0B0AD6F836
:103CE00010B00BFA09F949EA0A09C4F820902C68C7
:103CF0000EEA040E347904F0030404FA0CF444EAE6
:103D00000E042C60746814F4403F99D01C6844F091
:103D100001041C604FEA970C1C6804F00104009435
:103D200001F00C01009C4D4C54F82C4008FA01FEA7
:103D300024EA0E0EB5F1904F08BF00240ED0484C77
:103D4000A54208BF012409D0464CA54208BF022461
:103D500004D0454CA5427FF43FAF032441E7BDE8C2
:103D6000F18F2DE9F04F8A464FF0000B38493B4B5D
:103D70000F2204463CE0384EB44214BF0726042606
:103D800006FA0EF6B54212D10D68C04305400D602B
:103D90004D6805404D60CD680540CD608D68284078
:103DA000886053F8280020EA090043F8280003251A
:103DB0004FEA4B0005FA00F025680543256007F03F
:103DC0001C074FEADB0504EB850502FA07F72E6AAC
:103DD00026EA07072F62C043A7680740A760656807
:103DE00025EA0C056560E7683840E0600BF1010BDF
:103DF0003AFA0BF025D0012000FA0BFC1CEA0A006D
:103E0000F4D04FEA9B084FEA8B0753F8285007F08D
:103E10000C0E02FA0EF9B4F1904F09EA050508BF3D
:103E20000026ADD00E4EB44208BF0126A8D00D4EDC
:103E3000B44208BF0226A3D00B4EB4429BD1032646
:103E40009EE7BDE8F08F0AB18161704781627047DB
:103E500000040140601002400010004808000140CA
:103E60000004004800080048000C00480901020056
:103E700002D4314881547047304B02F00F021A448B
:103E800002F8041C70472E4B19684FF6FF0200021F
:103E9000114000F4E06008432A4908431860704765
:103EA00070B5274B1C68C4F302230124C3F1070536
:103EB000052D2EBF0F2504FA05F56D1E1E1D072EBC
:103EC00034BF0023DB1E2940994004FA03F3BDE808
:103ED00070405B1E1A401143C8E70000010007D480
:103EE000012200F01F01184B8A40400943F82020AE
:103EF000704701000BD4012200F01F01134B8A40D0
:103F0000400943F82020BFF34F8FBFF36F8F7047F6
:103F100010B5401EB0F1807F01D3012010BD0C4CC4
:103F200060600F214FF0FF30FFF7A0FF0021A1607C
:103F300007202060002010BD00E400E018ED00E044
:103F40000CED00E00000FA0500E100E080E100E097
:103F500010E000E080B500F03AFE012002BD38B567
:103F6000C14C228923780146C04813B90125257028
:103F700014E0E3899A4211D1002020700220616888
:103F800000F0AFFEB1A1022000F0BAFE0121201D19
:103F900000F0DCFE201D00F095FE02E0E28100F062
:103FA000FBF9012032BD80B5FEF7D2FF012002BD32
:103FB00080B50FF2E021032000F0ABFE0421AB48F6
:103FC00000F0EAF9012002BD01207047012070478E
:103FD000012070471CB500F03DF800F094FF01F09F
:103FE00004FA01F002FA002000900022A04C0FF227
:103FF000D9034FF0FF31204600F05CFD9D4920467B
:1040000000F0CEFD2046BDE8164000F06CBD00007B
:1040100080B500F047FD01F07DFAFFF7DBFF00BF40
:10402000A2A100F05CF800BFA8A100F058F800BF02
:10403000ADA100F054F800F05CF8012804BF4FF483
:10404000FA6001F093FA00F013F800F067FF01F056
:10405000E1F9F8E780B5FEF78EFC00F05AF88649E2
:104060000FF26100854B0FF27D0208601A6001BDFE
:10407000F8B5002600277D4D05EB0714617801296E
:1040800013D1042F606818BF012630B1FEF776FD0A
:104090006168A268401A904207D300206070FEF762
:1040A0006DFD6060F8B2E16888477F1C072FE3DB95
:1040B00095F8410018B90421284600F06DF9304602
:1040C000F2BD0000002107E080B500BF8DA100F027
:1040D00006F8BDE804400521644800F055B9032006
:1040E00000F00EBE0A4601464FF47A736448FDF7AD
:1040F0000FBE10B5FFF7CEFA002410F0724F04D1B6
:10410000410101D4000100D50124204610BDFEF775
:1041100032BC80B564225B495948FEF753FF5A49C7
:1041200008680268504922F0040202600020888179
:10413000002201212720FFF7B3FEBDE8024027201F
:10414000FFF7CCBE4E48FDF75CBE2DE9F843464A6A
:104150004D4C96891789E1694A4B81B9C719B7F562
:10416000966F06D3118104E057685D5C3E44755438
:10417000491C16898142F7DB8019108142E0864292
:1041800019DA851BADB2EF19B7F5966F24BF002180
:104190001181002109E0D2F804C0674401EB060C4C
:1041A00013F80CE007F801E0491C1789A942F2DB7B
:1041B000ED19158125E0C6F1640189B2C719CF193F
:1041C000B7F5966F24BF0027178100270AE05568CE
:1041D000B2F808E007EB0608754413F8089005F8F4
:1041E00007907F1C8F42F2DB002604E055682F44C5
:1041F0009D5DBD55761C17898642F7DB0918C919E4
:1042000011819081E06948B9642219461C48FEF783
:10421000D9FE2068016821F0040101600121BDE898
:10422000F44359E7194908600020704780B51848E1
:10423000016841F480410160026822F4804202601A
:104240000F48FEF75DFC002002BD00000D0A0000D3
:1042500080B50A4A126802B190470C490A680020EA
:104260009047002002BD0000A00000203000002088
:104270003819002080A9030060190020B80600202A
:10428000D4140020C0170020041400205C19002062
:1042900040100240755F6170705F636F6D6D3A2012
:1042A00073657420727463210D0A00000D0A3D3D90
:1042B0003D3D3D3D3D3D3D3D3D3D3D3D3D3D3D3D2E
:1042C0003D3D3D3D3D3D3D0D0A0000003D3D3D3D38
:1042D000204D41494E2050524F4752414D494E4783
:1042E000203D3D3D3D0D0A003D3D3D3D3D3D3D3DBB
:1042F0003D3D3D3D3D3D3D3D3D3D3D3D3D3D3D3DEE
:104300003D0D0A00755F6170705F636F6D6D3A20DF
:1043100074782074696D65722063620D0A00000074
:1043200080B5012215491648FDF742FD0022012102
:104330004620FFF7B5FDBDE802404620FFF7CEBDA1
:10434000704710B50D4C616822892078885440F27E
:10435000FF122089401C81B2914228BF0020208199
:10436000012221460648FDF723FD0121617002214B
:10437000BDE81040034800F00FB80000A806002078
:104380004C140020C401002000EB01100121002288
:10439000417042600120704710B500EB011401200C
:1043A0006070FEF7EBFB6060012010BDF0B585B0DA
:1043B00000F059F838BF6FF0040044D3E8680840B3
:1043C000884218BF6FF005003DD16B68002B18BF05
:1043D000002A01D000F039F80AAE334622464FF4E5
:1043E000007105F5836001F0D5F8E98ABDF8022077
:1043F000491CE9821018694680B200F06FF810F18C
:10440000010F1ED0002009E001A982B2401C8B5C84
:104410003B76BDF80010491CADF80010BDF8001047
:10442000BDF802206F1881B29142EDD33346224687
:104430004FF4007107F1180001F0ACF800F00FF82C
:1044400001E000F006F805B0F0BD0DF1020101A891
:104450001847E88A411EE9826FF002007047E88A37
:10446000411EE98207E01C460023ADF80230344DBE
:104470002B7A8342704738B5314CE08A002558BB0F
:1044800000F053F8618A228A8A4223D0A07801285A
:104490000AD120882580821AA2820223A37092B2B8
:1044A0005AB9A270258200E038B9208A884239BF03
:1044B000091AA182C0F58060A082208A204400F100
:1044C000180500F041F81F4AA18A936828469847CA
:1044D000054601E000F02EF8284632BDB0B5184B75
:1044E0001C8A5D8AA5424FF0FF3201D0AC420ED249
:1044F000C5F58065AFB2B8420AD3A04213D25D8A37
:104500001D8001249C7000241D8A5C8200E0651BD4
:10451000ADB2A84207D25A8A0A800022598A4018AE
:10452000C0F3090058821046B0BD0548C18A491C35
:10453000C18270470248C18A4A1EC2827047000089
:10454000F4060020E87A00087047000070B50E4EAF
:10455000044630780025A0B14FF47A710B4AB1FBC4
:10456000F0F11068B0FBF1F0FFF7D2FC48B9102C65
:1045700007D2002221464FF0FF30FFF791FCB460D4
:1045800000E00125284670BD000000202C0000201E
:10459000DFF87400006800F4C060704710B5DFF801
:1045A0006810B0F5007F086800F4C06019D1B0F55C
:1045B000007F1FD00868DFF85420DFF8544020F453
:1045C000C06040F4007000F017F800E0401E4A6937
:1045D000530501D50028F9D1486941050AD50320C2
:1045E00010BDB0F5806F05D0086820F4C06040F4BD
:1045F00080600860002010BD0860322013684343CB
:10460000B3FBF4F0401C7047007000402C00002009
:1046100040420F00032010B5FFF735FC0F20FFF7D5
:1046200095FF0024002814BF012401F0DDF8204686
:1046300010BD000038B586B01422002101A8FFF794
:10464000E1F82248224D016841F0010101604FF478
:104650008074026802F0010200920099026842F040
:1046600004020260036803F00403009300990268E7
:1046700042F0020202600022006800F00200009096
:104680004FF4807100982846FFF7DDFB00224FF4BD
:1046900080714FF09040FFF7D6FB0121029100227C
:1046A00003920492019401A92846FFF78BFA012195
:1046B00002910022022104910392019401A94FF07A
:1046C0009040FFF77FFA07B030BD00BF4C100240AA
:1046D0000008004880B51248016841F001010160FE
:1046E0000022006800F001000090002100980B20DB
:1046F000FFF7D6FB0B20FFF7F1FB002200210D2076
:10470000FFF7CEFB0D20FFF7E9FB002200210F2071
:10471000FFF7C6FBBDE802400F20FFF7DFBB00BF7D
:104720004810024010B586B0182200216846FFF7F5
:1047300069F8824C8248206000216160E1600420B9
:1047400001216061216104F1300000220921A26091
:104750002283E16184F82020A262E262027042605A
:104760000272204601F081F808B1FFF749F80622ED
:10477000019202927F2273490091039204210491D5
:10478000002205926946204601F088F908B1FFF73A
:1047900037F86D4900910C2200F042F808B1FFF79C
:1047A0002FF86A490091122200F03AF808B1FFF799
:1047B00027F867490091182200F032F808B1FFF796
:1047C0001FF8644900914FF4807200F029F808B195
:1047D000FFF716F8604900914FF4837200F020F85B
:1047E00008B1FFF70DF85D4900914FF4867200F0B3
:1047F00017F808B1FFF704F8594900914FF489728E
:1048000000F00EF808B1FEF7FBFF564900914FF497
:104810008C7200F005F808B1FEF7F2FF06B010BD8B
:1048200001926946204601F039B938B59EB0044678
:10483000142200216846FEF7E5FF6022002106A849
:10484000FEF7E0FF20683E4988426ED14FF4804277
:1048500006924FF080510122079208921B9110227C
:104860000992072102220B920C920A914FF080725A
:104870000D9206A8FEF7D0FF08B1FEF7C1FF3A4837
:104880003A4D016841F400510160026802F400529F
:1048900005920599026842F001020260036803F084
:1048A000010305930599026842F00402026003685F
:1048B00003F0040305930599026842F002020260C6
:1048C000F021006800F0020005900B22059800918D
:1048D0000192002102914FF090406946FFF772F972
:1048E000302000F024F82248FFF76CF9032000F094
:1048F0001EF82048FFF766F900216960E960802111
:104900001D48286029614FF40070002268614FF44F
:104910000061AA60A961EA612A622846FEF734F9BB
:1049200008B1FEF76DFFE564AC621FB030BD0B212E
:104930000090019100220292694670475C170020A6
:10494000000004500002B0250004002A0008302EA8
:1049500000106032002090360040C03A0080F03EE7
:1049600000002143010000804C1002408418002008
:1049700000080048000400480800024018B591B043
:104980001422002101A8FEF73DFF04220021684601
:10499000FEF738FF2C22002106A8FEF733FF374C24
:1049A000374820600021FF207F22E0606160A26024
:1049B00021616161A161E161204601F015FB08B14F
:1049C000FEF71EFF0020ADF804008DF806000490ED
:1049D0000590012201A9204601F058FB08B1FEF71D
:1049E0000FFF012100228DF800108DF801108DF8C5
:1049F00002108DF8032069460122204601F0C4FB15
:104A000008B1FEF7FDFE002001214FF48072ADF8E1
:104A100018008DF81A00079009900A900B900D90DD
:104A20000E908DF83C10109206A90122204601F04C
:104A300029FC08B1FEF7E4FE12B010BD10B598B025
:104A40000446602200216846FEF7DCFE21680C4A1D
:104A5000914210D14FF400334FF40071009317913D
:104A60006846FEF7D9FE08B1FEF7CAFE05480168A0
:104A700041F40041016018B010BD0000F81800209A
:104A80000028004090100240002201F0FDBD00000F
:104A90004018491C1CBFB1F1010100F8012DF9D1EA
:104AA00070470000DFF81412DFF8142200200860BD
:104AB00013681847F8B5040015461E4611D030009B
:104AC0000FD0069F00202060084600F03DF860608F
:104AD000E66000202761E57220726072A07260615A
:104AE000F2BD0120F2BDF8B5044600254CB300F03C
:104AF000A8F8002804BF607A002822D1704E6768A9
:104B0000306A8047B84238BF384620600120607262
:104B10002572A572694F386818B9306980472046F8
:104B200009E0B06980472168401820603A6813683E
:104B30009842204602D200F0B8F803E000F0A2F854
:104B400000E001252846F2BD5D494A6A104770B56C
:104B5000002410B3594D2A68012613461146867267
:104B6000E2B1824244720BD15069147218B12860CC
:104B700000F072F812E05248C16888472C600DE0DE
:104B8000814204D00B4649690029F9D106E0486901
:104B900000280CBF5C61586100E00124204670BD14
:104BA00038B50446084600250CB901250DE0FFF78D
:104BB000CBFF6060204600F044F830B12046FFF79C
:104BC000C6FF2046FFF78FFF0546284632BD70B569
:104BD0003B4D3A4E68698047296904468847041B63
:104BE000306868B301688C4234BF091B0021016042
:104BF00040690028F6D13168086828B1A869804763
:104C000031680A68824214D23468606930600021D9
:104C1000217261722069E1688847E07A012801BF4A
:104C2000A07A00282046FFF75EFF30680028E2D116
:104C300070BD29B1087A18B9BDE8704008460BE08C
:104C400070BD1E49096800E0496919B18142FBD174
:104C50000120704700207047F8B5194D0446286AB6
:104C60008047012121720646AF69B8472168301894
:104C7000814202D2B847361826602068A968BDE88C
:104C8000F440084710B50D490A68536901E01A4617
:104C90005B69516931B11C6801688C42F7D350617E
:104CA000436110BD5061416110BD044A116809B1F2
:104CB00000230B7241611060CEE7000064190020F0
:104CC000C877000810B5002104E003688CB2002208
:104CD0001A55491C83888AB29A42F6D300218180F2
:104CE00010BD0B4610B51146DFF8582014788442E9
:104CF00005D352681AB1BDE810401846104710BDE0
:104D000038B500F019F882B229462046BDE838408F
:104D1000E7E738B500F010F882B229462046FFF7E1
:104D2000E0FFDFF8240004682CB12846FCF75EFAA7
:104D300081B22846A04731BD04460D462846FCF7FF
:104D400055BA0000B4060020701900202DE9FE437A
:104D5000054600BF3AA08846D0E90023CDE90023EC
:104D6000002007E0A2F141031A2B3CBF20320A5475
:104D7000401C80B2A988884205DA29680A5C3D2A6D
:104D800018BF3F2AEED10026DFF8B09009EB0617D6
:104D9000294607F10C0001F090FC0446002C01D4D8
:104DA000B86828B9761C412EF0DB0020BDE8FE83F0
:104DB00009F224463046FFF785FF002006E03368FD
:104DC0005A54401CB188491CB18080B2A988091B83
:104DD000884209DA2A681219125C3F2A18BF3D2A54
:104DE00002D0B1888029EADB388A04190BE0BDF8CB
:104DF0000400802806D2009A1154BDF80400401C1B
:104E0000ADF80400641CA4B2AA8894420ADA2868A7
:104E1000015D0D29EBD1521E9442E8DA0019407869
:104E20000A28E4D1A8F10100012889F8008003D8FC
:104E3000BA680021684690470120B7E77C0200204D
:104E40005C160020000000000120704770B5434D43
:104E5000434E317804466878814206D0414A52F880
:104E6000200000F037F86878307021463E482DE089
:104E700010B53E4C3E48A18849080180204601F00B
:104E800095FD2046FFF71EFF012010BD0120704751
:104E900070B5374E344D04463088A8B1A96B3548FB
:104EA000282907D101224FF48071FEF7CCFF14228C
:104EB000AA6309E000224FF48071FEF7C4FF2820A6
:104EC000A86331884A1E328021462846FFF764FADB
:104ED000012070BD80B52849284A48600A6000203A
:104EE0008860C86008610C228861C86108624862F5
:104EF0004A610846FCF7C8FE08B1FEF781FCBDE830
:104F00000140FFF70DBA80B501F041FD1349154886
:104F10004A7850F82200BDE80240DBE770B5002473
:104F20000025114800EB05167278012A11D170682E
:104F3000012430B1FDF722FE7168B268401A904238
:104F400007D300207070FDF719FE7060E8B2F168B9
:104F500088476D1C042DE4DD204670BDB80100209B
:104F60007A1900208C010020C4010020AC0600202A
:104F700078190020000800484C1400200038014037
:104F800038B5DFF8DC540446B5F84000401CA5F8FD
:104F90004000092205F14401DFF8C80400F029FDB2
:104FA000B5F84000642804D101212846FFF7ECF948
:104FB00003E021462846FFF7EFF9012032BDF8B59E
:104FC0000446DFF89C64DFF89C04092206F14401E2
:104FD00000F00FFDDFF8905458B906F1440305EBDB
:104FE000800153F82070CA6B401CBA180928CA63A4
:104FF000F5DB288F401C288780B2642806DB002060
:10500000288702213046FFF7BFF903E021463046EA
:10501000FFF7C2F90120F2BD10B5DFF84C44E06B98
:10502000226C6421B0FBF1F164202180B2FBF0F02E
:1050300060806420616CE26DB1FBF0F0A0806420C0
:10504000A16CB1FBF0F0E0806420E16CB1FBF0F00A
:1050500020816420216DB1FBF0F060816420616DDE
:10506000B1FBF0F0A0816420A16DB1FBF0F06423EE
:10507000E081B2FBF3F32382242104F13C00FFF72B
:1050800003FDDFF8E8231188228A40F6B830414357
:1050900000EE101A00EE902AB8EE400AF8EE600A10
:1050A0002088C0EE200A9FED811A80EE810A01EE71
:1050B000900A84ED0D0AF8EE611A21EE800ADFED08
:1050C0007C0A6088C0EE200AC4ED050A00EE100AD2
:1050D00000F043F8A08800F037F884ED061A00F0DD
:1050E0003CF8E08800F030F884ED071A00F035F85D
:1050F000208900F029F884ED081A00F02EF8608964
:1051000000F022F884ED091A00F027F8A08900F0D9
:105110001BF884ED0A1A00F020F8E08900F014F87A
:1051200084ED0B1A00F019F860EE200A9FED601A6A
:1051300080EE811A84ED0C1A0121DFF82403FFF7B9
:105140002BF9012010BD000060EE200A9FED581AD7
:1051500080EE811A00EE100A7047B8EE400AD4EDD6
:105160000D0A704738B5DFF8F852A96B0446B1F55F
:105170007A7FDFF8FC0207D101224FF48071FEF73D
:1051800062FE2822AA6307E000224FF48071FEF736
:105190005AFE4FF47A70A86321462846FFF7FCF8C0
:1051A000012032BD00B591B03C2102A8FFF76CFC94
:1051B0000022ADF8042003211A2001F0D6FB0B20B9
:1051C00000900023B8A201A902A801F0BAFDBDF821
:1051D0000420A8484FF47A7302A9FCF799FD11B096
:1051E00000BD7047D0B590B003A8A3490FF20C34AE
:1051F0003222FCF731F800F033F8027821E070B584
:1052000000F04DF80ED200F05BF8B0F5807F09D2C7
:105210009A494978C0B201F0A8FB4FF47A73022290
:105220008CA101E000F046F834E00000D0B590B069
:1052300003A89349B3A43222FCF70EF800F010F84B
:10524000427803A90191002300F0CBF802200090DE
:10525000002381A200F0BAF800F0B0F810B0D0BD81
:10526000D4E90067CDE901678448704770B500F064
:1052700016F80DD200F024F80C2809D2C1B27F48EC
:10528000007801F072FB4FF47A73022271A101E001
:1052900000F010F82046BDE87040FCF739BD026808
:1052A000744C117830390A297047000000007A44A4
:1052B00000F07F454FF47A735FF005027DA17047DF
:1052C00085880021002301E0491C5B1CAB4203DA06
:1052D000D65C303E0A2EF7D3C9B2104601F041BD6C
:1052E000D0B52DED028B9CB003A8664987A464223B
:1052F000FBF7B2FFD4E90067CDE901675A4C03A977
:105300009FED568A94ED050ACDF8041000F062F87E
:1053100000F050F80FF2A41200F058F894ED060ACD
:1053200000F058F800F046F80FF2981200F04EF82E
:1053300094ED070A00F04EF800F03CF80FF28C12E2
:1053400000F044F894ED080A00F044F800F032F858
:105350000FF2801200F03AF894ED090A00F03AF8E2
:1053600000F028F80FF2741200F030F894ED0A0AF9
:1053700000F030F800F01EF80FF2681200F026F886
:1053800094ED0B0A00F026F800F014F857A200F094
:105390001DF894ED0C0A00F01DF804200090002385
:1053A00054A200F013F800F009F81CB0BDEC028B19
:1053B000D0BD00000520009000237047BDF80820F4
:1053C00001992C484FF47A73FCF7A2BC02A903A8F8
:1053D00001F0B7BC20EE080ABDEEC00AFD2310EEB6
:1053E000102A02A903A801F066BC80B57F211D48E0
:1053F00001F0E2FC24482549254A01600261254963
:10540000254A01630264254B2549264A036201654A
:10541000026601BD70B500240025114800EB051699
:105420007278012A11D17068012430B1FDF7A6FB12
:105430007168B268401A904207D300207070FDF77F
:105440009DFB7060E8B2F16888476D1C042DE4DBB9
:10545000204670BD4F4B00000D0A000000007A444A
:10546000140200205C17002024180020AA75FF1FDA
:1054700000080048D414002030770008B80100204C
:10548000647700081476000824060020A55100085F
:10549000E3510008FF5100082D520008E5510008B3
:1054A0006D520008E15200085265736574204F4B3D
:1054B000210D0A004552524F52000000204348324D
:1054C0003A000000204348333A00000020434834AB
:1054D0003A000000204348353A0000002043483697
:1054E0003A000000204348373A0000002043483883
:1054F0003A00000020454E4400000000000000007B
:105500000C000000000000000C0000000000000083
:105510000500000010B586B0DFF84840002201A960
:10552000204600F013FE00226946204600F07AFE75
:10553000DFF834009DF806109DF804208170027099
:105540009DF8051041709DF80010C1709DF8021083
:1055500001719DF8011041719DF80310817106B031
:1055600010BD0000F81800205019002038B504467E
:10557000FDF704FB14F1010F054602D00448017841
:105580006418FDF7FBFA401BA042FAD331BD00BFFF
:10559000000000202DE9F84F002994B0D8BF00206A
:1055A00040F31681491E0290064600910DF10C0948
:1055B000154601930AE071460029A1F1010E04DDB0
:1055C0002021401E06F8011BF5D16D1C029A297896
:1055D000B21A19B900988242C0F2F780009B029873
:1055E0009A4280F2F280252918BF06F8011BECD1FF
:1055F00015F8011F0023302908BF012330390A297B
:105600004FF0FF370BD2002705E015F8012B0A21D8
:1056100001FB0727303F297830390A29F5D329784B
:1056200058294FF00A0A4BD063291CD0642918BFAF
:1056300069294AD0732921D075294DD0782941D0C4
:1056400025291CBF252106F8011B009A311A914219
:1056500042DA2978002914BF06F8011B6D1E37E0D5
:10566000202006F8010B7F1E002FF9DC0198001D99
:105670000190001F006806F8010BA6E70199091DBB
:10568000019151F8048DB8F1000F08BF0FF25018C6
:105690004046FBF7ABFD0446BC42A7EB040A05DA23
:1056A000202251463046FFF7F3F956440020A0422D
:1056B000BEBF18F8011B06F8011B401CF7DB84E78E
:1056C00043F040034FF0100A06E043F0020303E00A
:1056D000009A311A9142F2DB990705D5019A121D01
:1056E000019252F8041D04E00199091D0191091F5E
:1056F0000968DFF8E480BE46009F301A381A5C065D
:1057000048BFDFF8D880AAF10207232F4FF0FF32FD
:1057100028BF0026D3D2DF074CBF302720279C07A5
:1057200048BF00294FF0000C04D54FF02D0C494222
:10573000AEF1010E002421B930228DF80C20012495
:105740000DE0B1FBFAFB0AFB1B1118F8011009F878
:105750000410641C5FEA0B01F3D1002C00D4224634
:10576000D907AEEB020E0AD471460029A1F1010E51
:1057700005DD2021401E06F8011BF5D125E7BCF10F
:10578000000F03D0401E06F801CBF7D07146002968
:10579000A1F1010E09DD401E06F8017BF6D114E7E8
:1057A0003021401E06F8011BF9D011464A1E8C42DA
:1057B000F6DB21464C1E00297FF7FDAE19F80410D8
:1057C00006F8011B401EF4D1FFE6002030701046A1
:1057D00015B0BDE8F08F0000E076000808770008FB
:1057E0003C4E554C4C3E00000A4881B0816841F067
:1057F00001018160816801F0010100910099026856
:1058000042F080520260006800F0805000900098E2
:1058100001B0704758100240603000EB8100006812
:1058200000F0F8407047603000EB8100016821F023
:1058300000410A4302607047C06800F44060401EA7
:105840008041C00F7047CB0D10B5143003F0040336
:105850001818090D01F01F01036807248C40A343A9
:1058600002FA01F11943016010BDF8B500250446A4
:1058700000950CB90120F2BD04F15006706820B902
:105880002046FEF7D2FFB560357021688868800039
:1058900004D58A68DFF8F00402408A6021688868CD
:1058A000C00012D48A68DFF8E404024042F080525B
:1058B0008A60DFF8DC14DFF8DC240868B0FBF2F261
:1058C000521C5200009200F0ECFA20688168C90076
:1058D00008D4726842F0100272600125B16841F08C
:1058E0000101B160836871689B08CA067AD4D90740
:1058F00078D4726822F4807242F00202726080688A
:10590000C0070CD4DFF890140868C00707D4DFF88C
:105910008C140A68606822F47C1202430A6004F165
:105920003002607E5768E16894F820C047EA40374B
:10593000A0680F430743BCF1010F47EA0C4703D1AE
:10594000606A401E47EA4047A06A20B1E16A00F45D
:105950007070084307432168DFF84404D1F80CC095
:1059600000EA0C000743CF60DB072168886824D475
:10597000000722D4CB68DFF82C04277E0340107880
:1059800043EA873343EA4003CB60107A01280FD102
:1059900023681F69D16810696FF38A070F43516943
:1059A000074390690F43074347F001071F6104E075
:1059B00020680169490849000161206901282068BF
:1059C000016B05D1E2690909521E42EA011101E0A9
:1059D000090909010163706820F0020040F001002C
:1059E000706004E0706840F0100070600125284687
:1059F000F2BDF8B504460D4620688068400716469B
:105A000049D404F150073978012944D00120387075
:105A1000204600F0FDF901003AD17968DFF8080569
:105A2000014041F48071796033467868C10446BF13
:105A3000B86820F006000020B8600FF21951E06C41
:105A4000C162E06C0FF281510163E06C0FF2815191
:105A500041631C2122681160002038702A462068AA
:105A6000416841F0100141602068C16841F00101C6
:105A7000C160206800F14001E06CFDF731F9226857
:105A8000DFF8A01493680B4043F004039360F2BD69
:105A900000213970F2BD0220F2BD0000F8B50646C3
:105AA000002406F150050F4600942978012901D100
:105AB0000220F2BD0120287030688168490700F19A
:105AC00059817968062910D2891E03290CD8DFE88C
:105AD00001F0020406080C2107E0122105E018215C
