:020000040800F2
:10000000501E0020C9B300080DAD000811AD000856
:1000100000000000000000000000000000000000E0
:1000200000000000000000000000000015AD000806
:10003000000000000000000017AD000819AD000826
:100040008F310008E331000829AD0008E7310008CE
:10005000E335000827650008F7780008CF7B000823
:10006000F77B00083B80000833AD0008DF81000803
:100070001B820008DF85000843AD0008E387000805
:10008000978F0008BF930008F3A700080000000046
:1000900053A800086BA800080BAD00085FB000086B
:1000A0006BB0000801B6000803B600084DAD0008AB
:1000B00005B6000807B600080000000009B60008F1
:1000C00010B50400002C01D1012035E0A069002802
:1000D000FFD1E06F002805D1002078216054200076
:1000E00001F0E6F82420E0672068006801218843D9
:1000F00021680860606A002802D0200000F076FCC9
:10010000200000F0D9FA012801D1012014E0206874
:1001100040680A49014020684160206880682A21BF
:1001200088432168886020680068012101432068B5
:100130000160200000F0CEFC10BD0000FFB7FFFF03
:10014000FEB582B004000F00E06F202865D1002FBB
:1001500003D068468089002801D101205EE0802517
:100160006D01A068A84207D12069002804D1380099
:10017000C00701D5012051E000268420265021200F
:10018000E06701F067F9019068468089502160526C
:100190006846808952216052A068A84205D1206932
:1001A000002802D135003E0000E03D005220205AD8
:1001B000002820D004980090019B0022802120007C
:1001C00000F0F4FC002803D02020E067032025E0A5
:1001D000002D06D13088C005C00D21688862B61C8C
:1001E00003E02878216888626D1C5220205A401E46
:1001F00052216052DAE704980090019B00224021CE
:10020000200000F0D3FC002803D02020E06703206A
:1002100004E02020E067002000E0022005B0F0BDEF
:1002200070B504000D00160080202058202833D11E
:10023000002D03D0300080B2002801D101202CE035
:10024000A06880214901884207D12069002804D193
:100250002800C00701D501201FE00020206620688B
:100260000E49884211D02068406800020DD5EFF396
:100270001080012181F31088216809688022D2044E
:100280000A4321680A6080F31088320092B2290084
:10029000200000F0D9FC00E0022070BD00480040C2
:1002A00070B50400E56F802026582068806800063D
:1002B00023D5212D21D1EFF31080012181F3108866
:1002C00021688968802291432268916080F31088B8
:1002D000206F00280ED0206F01F08AF9002809D085
:1002E000206F01F050FA202804D1102084216050A2
:1002F00003202BE0200000F089FD20688068400684
:1003000023D5222E21D1EFF31080012181F3108813
:1003100021688968402291432268916080F31088A7
:10032000606F00280ED0606F01F062F9002809D0DC
:10033000606F01F028FA202804D110208421605039
:10034000032003E0200000F071FD002070BD0000DC
:10035000FEB504002068C7692068056820688068C9
:100360000090954838400290029800280AD1B806BB
:1003700008D5A80606D5A06E002802D02000A16EE0
:10038000884790E10298002800D1A6E0012000995A
:100390000140002904D1C4492940002900D19CE032
:1003A00001003940C9B2002908D0E90506D5216805
:1003B00008628421615801438422A150B9070DD5F8
:1003C00000990140C9B2002908D0022122681162B7
:1003D0008421615804220A438421625079070DD593
:1003E00000990140C9B2002908D004212268116295
:1003F0008421615802220A438421625039070ED5B4
:10040000A90604D400990840C0B2002807D00820EB
:1004100021680862842161580843842160503805AE
:100420000BD5680109D5802000012168086284206D
:100430002058202101438420215084202058002866
:100440004AD0B80607D5A80605D5A06E002802D068
:100450002000A16E88478420205801904026206803
:1004600080683040002804D10198282101400029EB
:100470002CD0200000F0DAFC206880680640002EB6
:1004800020D0EFF31080012181F310882168896862
:10049000402291432268916080F31088606F0028A9
:1004A0000CD08248616F8863606F01F0CBF8002840
:1004B00012D0606F616F896B88470DE0200001F0FA
:1004C000E4F909E0200001F0E0F905E0200001F086
:1004D000DCF9002084216050E5E0206E012800D086
:1004E000C1E0F80600D4BEE0E80600D4BBE010206E
:1004F0002168086220688068400672D5606F0068D5
:100500004668300080B2002858D030005821615A27
:1005100080B2884252D25A2026522020616F096848
:100520000968014000293AD1EFF31081012282F3DA
:100530001088226813685E4A1A4023681A6081F3A3
:100540001088EFF31081012282F3108822689268EC
:1005500001239A4323689A6081F31088EFF3108196
:10056000012282F310882268926840239A4323680C
:100570009A6081F310888021605000202066EFF39C
:100580001080012181F310882168096810229143AD
:100590002268116080F31088606F01F029F8022052
:1005A00060665820205A5A21615A411A89B22000A7
:1005B00001F055F914E000BF0F0800003000582189
:1005C000615A80B288420BD1606F00680068800673
:1005D00006D5022060665820215A200001F03FF91C
:1005E00061E05820205A5A21615A461A5A20205A4E
:1005F000002837D0300080B2002833D0EFF31080CD
:10060000012181F31088216809682A4A0A4021687B
:100610000A6080F31088EFF31080012181F31088C5
:1006200021688968012291432268916080F31088D3
:1006300020208021605000202066A066EFF310800B
:10064000012181F3108821680968102291432268F2
:10065000116080F3108802206066310089B22000AA
:1006600001F0FDF81FE0F8020AD50098400207D516
:100670008020400321680862200001F092F912E016
:10068000380608D5280606D5E06E002802D02000DE
:10069000E16E884707E0780605D5680603D5200097
:1006A00000F0C1FCFFE7F7BD2001000413100008B3
:1006B000FFFEFFFFDFFEFFFFFEB50600002738004C
:1006C00069460870AA4831688142FFD0B168326932
:1006D0000A4373691343F169194332681268A54BE1
:1006E00013400B433268136032685268A24B1340C8
:1006F000F2681A4333685A60B269029232688242E1
:1007000003D00299326A0A430292316889689B4A8F
:100710000A4002991143326891603168984A9142C7
:1007200015D1AD4909688907890F002905D002292B
:1007300005D006D3032906D007E0012550E00225A5
:100740004EE004254CE008254AE0102548E03168D9
:10075000A24A914216D1A04909680C220A40002AF7
:1007600006D0042A08D0082A04D00C2A06D007E0B4
:100770003D0035E0022533E0042531E008252FE077
:1007800010252DE03168964A914201D13D0027E0C5
:100790003168944A914201D13D0021E031688142A3
:1007A0001DD18D490968C02212010A40002A0CD0CF
:1007B0008021C9008A420CD0802109018A4206D0DA
:1007C000C02109018A4206D007E03D0008E0022569
:1007D00006E0042504E0082502E0102500E01025CD
:1007E0003168814258D12800C0B2002806D00228C2
:1007F00008D004280ED0082810D012E001F000FD27
:10080000040012E078480068C00601D5AF4C00E053
:10081000AF4C0AE001F0A2FC040006E080242402B0
:1008200003E03C00012069460870002C00D1CDE0B7
:10083000706803214843844205D3706880214901D0
:100840004843A04203D2012069460870BEE0200060
:10085000002180225200002301F004FD02000B0061
:10086000706840080021801859417268002301F027
:1008700012FD01900198C0218900884208D3019897
:1008800080214903884203D201983168C8609DE005
:1008900001206946087099E080242402F069A04292
:1008A0004BD12800C0B2002808D001280AD0022865
:1008B0000CD0042812D0082814D014E001F0A0FCB9
:1008C000040014E001F0A8FC040010E046480068B1
:1008D000C00601D57D4C00E07D4C08E001F03EFCF7
:1008E000040004E003E03C00012069460870002C8D
:1008F0006CD002206043716849084018716801F0AB
:1009000018FD01900198102813D301988021490205
:1009100088420ED20199A148084001994908490727
:10092000490F014368464180684640883168C86085
:100930004CE001206946087048E02800C0B2002859
:1009400008D001280AD002280CD004281CD008287E
:100950001ED01EE001F054FC04001EE001F05CFC1F
:1009600004001AE020480068C0060BD5574C0AE086
:1009700000480040F369FFEFFFCFFFFFFFF4FFFFE8
:1009800000380140524C08E001F0E8FB040004E0AC
:1009900003E03C00012069460870002C16D0706806
:1009A00040082018716801F0C4FC019001981028DB
:1009B00009D3019880214902884204D2019880B26B
:1009C0003168C86002E0012069460870B766F766C2
:1009D00068460078FEBD00BF4C1002400044004055
:1009E000004C0040005000400010024000B524219F
:1009F000415C090707D501684968694A0A40416BAB
:100A00001143026851602421415CC90707D5016880
:100A10004968644A0A40816A11430268516024218E
:100A2000415C890707D5016849685F4A0A40C16A85
:100A30001143026851602421415C490707D50168D0
:100A40004968BD4A0A40016B114302685160242184
:100A5000415CC90607D501688968B84A0A40816BBC
:100A60001143026891602421415C890607D5016821
:100A70008968B34A0A40C16B11430268916024211E
:100A8000415C490614D501684968AE4A0A40016CC8
:100A9000114302685160016C80225203914207D1D8
:100AA00001684968A84A0A40416C114302685160D4
:100AB0002421415C090607D501684968A34A0A4018
:100AC000816C11430268516000BD000000093D00C7
:100AD0000024F4007CB50500002484202C5000F094
:100AE000B9FC06002868006800071DD5C6480090BC
:100AF0003300002280218903280000F057F80028E5
:100B000012D0EFF31080012181F310882968096861
:100B1000802291432A68116080F310882020E867C2
:100B200078202C54032038E02868006840072BD533
:100B3000B5480090330000228021C903280000F04E
:100B400035F8002820D0EFF31080012181F31088C0
:100B500029680968CE4A0A4029680A6080F310882B
:100B6000EFF31080012181F3108829688968012240
:100B700091432A68916080F310882020802168507A
:100B800078202C54032008E02020E867802168505A
:100B90002C666C6678202C54002076BDF0FF000097
:100BA000FF7FFFFFFFFFFDFFFFFFFEFFFEB504001D
:100BB0000F00089D2068C0693840B84201D101206B
:100BC00000E000206946097988423BD10020C043FB
:100BD0008542EFD000F03EFC0299401A854201D3D5
:100BE000002D01D103202EE0206800684007E1D5E8
:100BF000802FDFD0402FDDD008262068C06930402C
:100C000000280BD020680662200000F00FF9842035
:100C10002650002078216054012014E0802000013B
:100C20002168C96901400029C4D0216808622000F8
:100C300000F0FCF8202084216050002078216054CE
:100C4000032000E00020FEBD70B503005965582068
:100C50001A525A201A5200249C66802040019D6836
:100C600085420AD11D69002D03D1BC4D5C269D53E0
:100C700024E0FF255C269D5320E09D68002D0AD1CD
:100C80001D69002D03D1FF255C269D5316E07F25AD
:100C90005C269D5312E09D6880267605B5420AD1F8
:100CA0001D69002D03D17F255C269D5306E03F255D
:100CB0005C269D5302E025005C269D5384255C51F3
:100CC000222480255C51EFF31084012585F31088E0
:100CD0001D68AD6801262E431D68AE6084F3108840
:100CE0009C68844205D11869002802D19C48986606
:100CF00001E09C489866186900280ED0EFF3108038
:100D0000012484F310881C68246890256D00254315
:100D10001C68256080F310880CE0EFF3108001243C
:100D200084F310881C682468202525431C682560EE
:100D300080F31088002070BDFFFFFBFFFFEFFFFF77
:100D4000FFDFFFFFFFFFEFFFFFFF9FFFFFFFF7FF4B
:100D500070B504000E00150066655820255200206D
:100D60008421605022218022A150616F00291DD072
:100D70007D49626FD1627D49626F11637C49626F08
:100D80005163616F88632B009BB2626D2068010024
:100D90002431606F00F0E6FB002807D0102084218A
:100DA000605020208021605001202BE02069002825
:100DB0000DD0EFF31080012181F3108821680968BC
:100DC000802252000A4321680A6080F31088EFF302
:100DD0001080012181F310882168896801220A436B
:100DE00021688A6080F31088EFF31080012181F37D
:100DF00010882168896840220A4321688A6080F34C
:100E00001088002070BD0000FFFFFF01EFF310818C
:100E1000012282F3108802681268C0239A43036893
:100E20001A6081F310882021C167704700B5EFF385
:100E30001081012282F3108802681268144B13405B
:100E40000268136081F31088EFF31081012282F3AE
:100E500010880268926801239A4303689A6081F3BC
:100E60001088016E01290CD1EFF31081012282F369
:100E700010880268126810239A4303681A6081F38D
:100E8000108820218022815000210166816600BDEA
:100E9000DFFEFFFF70B50400A56A20202168096805
:100EA000014000293BD100215A22A952EFF31081C1
:100EB000012282F310882A6812682E4B13402A6898
:100EC000136081F31088EFF31081012282F3108800
:100ED0002A68926801239A432B689A6081F31088EC
:100EE000EFF31081012282F310882A689268402370
:100EF0009A432B689A6081F3108880216850286E8D
:100F000001280CD1EFF31080012181F310882968AA
:100F10000968102291432A68116080F3108800202C
:100F20006866296E012915D15A21685220684668E1
:100F300030005821695A80B2884201D25A202E527C
:100F40005820285A5A21695A411A89B2280000F0BB
:100F500086FC02E0280000F06FFC70BDFF0100007D
:100F60004B11000855100008950E0008790F000875
:100F7000C30F0008FFFEFFFF70B50400A56A012043
:100F80006866286E012818D15820285A40085A212E
:100F90006852206846685820285A310089B2884231
:100FA00001D35A202E525820285A5A21695A411AE0
:100FB00089B2280000F053FC02E0280001F010FA8A
:100FC00070BDF8B50400A56AEF6F80202E58286820
:100FD0008068000607D5212F05D1002052216852D4
:100FE0002800FFF713FF28688068400607D5222EE7
:100FF00005D100205A2168522800FFF717FF8420EE
:1010000028581021014384202950280000F03DFC7D
:10101000F1BD38B50400A56A00205A2168522800A5
:1010200000F033FC31BD10B50400EFF31080012156
:1010300081F3108821680968402291432268116079
:1010400080F310882020E0670020E066200001F097
:10105000C8F910BD70B504005C20255A80202058C6
:1010600022286BD12068406A060030002900014028
:10107000606D0170606D401C60655A20205A401EF2
:101080005A2160525A20205A00285DD1EFF3108077
:10109000012181F31088216809686A4A0A402168A1
:1010A0000A6080F31088EFF31080012181F310882B
:1010B00021688968012291432268916080F3108839
:1010C0002020802160500020A066606621685E4A72
:1010D000914210D02168496809020CD5EFF31081C4
:1010E000012282F3108822681268584B134022684C
:1010F000136081F31088216E01291BD12066EFF364
:101100001080012181F31088216809681022914321
:101110002268116080F3108810202168C96901409D
:10112000002901D0216808625820215A200000F0CF
:1011300096FB09E0200000F07FFB05E02068806955
:10114000082101432068816170BDF8B504005C206E
:10115000255A8020205822286BD12068406A06003A
:10116000606D0700280030403880606D801C60652D
:101170005A20205A401E5A2160525A20205A0028D4
:101180005DD1EFF31080012181F310882168096897
:101190002C4A0A4021680A6080F31088EFF310801F
:1011A000012181F310882168896801229143226816
:1011B000916080F310882020802160500020A0667C
:1011C00060662168204A914210D02168496809026E
:1011D0000CD5EFF31081012282F310882268136886
:1011E0001A4A1A4023681A6081F31088216E012977
:1011F0001BD12066EFF31080012181F31088216854
:101200000968102291432268116080F31088102031
:101210002168C9690140002901D02168086258206D
:10122000215A200000F01BFB09E0200000F004FB25
:1012300005E0206880690821014320688161F1BDD3
:1012400000000000DFFEFFFF00480040FFFFFFFB43
:1012500080B573487349016096218901416000217E
:101260008160C16001610C2242618161C1610162E2
:101270004162FEF725FF002801D001F01BF901BDF6
:1012800080B5694869490160E12149024160002156
:101290008160C16001610C2242618161C1610162B2
:1012A0004162FEF70DFF002801D001F003F901BDF6
:1012B000F8B586B0070014220021684601F0FDF859
:1012C0003868584988423CD1594801688022D20187
:1012D0000A430260012057490A6802430A6009680C
:1012E000084005900598C020C000009002200190A1
:1012F0000024029403250395042004906946A0204D
:10130000C00501F0E9F84C4E4C4830607560B4609F
:10131000F460802030617461B461F4613462300043
:1013200000F09EF8002801D001F0C4F87E67B76293
:10133000002200211B2001F026FB1B2001F02DFBC9
:101340003EE03868394988423AD13D4801688022F8
:1013500012030A430260012036490A6802430A6008
:10136000096808400590059803200090022101912A
:10137000002402940390062004906946A020C00532
:1013800001F0AAF82F4D304828600C206860AC604E
:10139000EC60802028616C61AC61EC612C622800FB
:1013A00000F05EF8002801D001F084F87D67AF629C
:1013B000002200210E2001F0E6FA0E2001F0EDFAE5
:1013C00007B0F0BD10B5040020681649884211D15D
:1013D000174801681D4A0A400260C021C900A020C8
:1013E000C00501F085F9606F00F080F81B2001F066
:1013F000DBFA13E020680D4988420FD110480168DC
:10140000134A0A4002600321A020C00501F070F9D0
:10141000606F00F06BF80E2001F0C6FA10BD0000FE
:101420002C14002000380140B4140020004C00406F
:10143000341002402C10024074180020300002408A
:1014400038100240BC1800201C000240FFBFFFFF04
:10145000FFFFF7FF01480068704700BF181A00201F
:10146000F0B50400002C01D101203EE0206839498C
:101470004018142100F05DFF80006064364820644D
:101480000220252160542068016834480840A16882
:10149000E2680A432169114362690A43A169114361
:1014A000E2690A43216A1143014320680160A06890
:1014B0008022D201904210D029481C2203680F25B7
:1014C000666C17003740BD40AB4303600368656836
:1014D000666C324095401D4305600020E0630122A8
:1014E0002523E2542422A0540020F0BD70B504004E
:1014F000002C01D101202CE02068006801218843E4
:1015000021680860206813494018142100F011FF79
:1015100080006064104820640020216808601C215D
:101520000122636C0B409A40236C5A600C4A13688A
:101530000F25666C31408D40AB431360E062206341
:101540006063A063E06301002522A154242160545C
:10155000002070BDF8FFFDBF000002400F80FFFFBC
:10156000A8000240F7B504001F0000200600242157
:10157000615C012901D1022039E0012529002422E2
:10158000A1542521615C01292BD102212522A154DE
:10159000E0632068006801218843216808603B00FF
:1015A000029A0199200000F0F0F8206B002806D084
:1015B000206800680E210143206801600BE020686C
:1015C00000680421884321680860206800680A21B7
:1015D00001432068016020680068054320680560B9
:1015E00003E024216054022006003000C0B2FEBD9A
:1015F00030B50100002002002523CB5C022B05D072
:101600000423CB632423C85401201AE00B681B6811
:101610000E24A3430C6823600B681B680124A343BA
:101620000C682360012344240C5D1C2525401C000C
:10163000AC400D6C6C6025240B552423C85410005D
:10164000C0B230BD38B50400002005002521615C22
:10165000022904D00420E063012005001EE0216877
:1016600009680E22914322681160216809680122ED
:1016700091432268116001214422A25C1C23134083
:101680000A009A40236C5A602522A15424216054F8
:10169000A06B002802D02000A16B88472800C0B2B0
:1016A00032BD70B50400206C05682068066804210E
:1016B0001C20626C02400B0093402B40002B17D083
:1016C0000E4215D022681268920605D4226812686C
:1016D00004239A4323681A60626C10408140206C96
:1016E0004160206B00284DD02000216B884749E0E5
:1016F0000221626C02400B0093402B40002B1DD056
:101700000E421BD022681268920608D42268126822
:101710000A239A4323681A6001222523E254626C4B
:1017200010408140206C4160002024216054E06A18
:10173000002827D02000E16A884723E00821626C56
:1017400002400B0093402B40002B1BD0314000295E
:1017500018D0216809680E22914322681160012186
:10176000626C10400A008240206C4260E1632520D8
:101770002154002024216054606B002802D02000F6
:10178000616B884770BDC06B704770B501244425FC
:10179000455D1C262E40B440056C6C600468636097
:1017A0008468102C04D10468A2600468E16003E03E
:1017B0000468A1600468E26070BDF1B40168421879
:1017C00041684808131800988068C9071ED5494623
:1017D00040181BE01778521C0770401C761EF9D188
:1017E000002C13D01678521C89080D40032D01D10E
:1017F0001578521C290271184D424119A41C05D0BC
:101800000D78491C0570401C641EF9D19A420FD016
:101810001178521C032503260E4002D11678F61CBF
:10182000521C0C090F2CD9D114780F34521CD5E757
:1018300000980C30F2BC704710B5040020683149A4
:101840000968884202D1012001F028FA20682E4957
:101850000968884202D1012001F024FB10BD38B58F
:1018600005000C00286827490968884203D1200038
:1018700080B201F013FA286823490968884203D12D
:10188000200080B201F00EFB31BD10B504002068CD
:101890001C490968884202D100201C490870206850
:1018A00019490968884202D10220184908700221AA
:1018B000174801F021FB10BD1CB5144C2078009096
:1018C000144B00220021032001F03EFB2078002869
:1018D0000ED101F0C6F910480188491C0180018829
:1018E000142903DB0021018001F09EF901F0A0F929
:1018F00020782078022803D101F0D3FA01F0C2FA4F
:10190000207813BDB41400202C1400204C1A0020A1
:1019100008000020C0B00008441A0020F8B50400F8
:101920000E00170080202058202838D1002E03D028
:10193000380080B2002801D1012031E0A068802168
:101940004901884207D12069002804D13000C0072E
:1019500001D5012024E001252566002060663A00BB
:1019600092B231002000FFF7F3F90100C9B200295B
:1019700013D1216E01290FD1102122681162EFF3DA
:101980001082012383F3108823681B68194323689E
:10199000196082F3108800E02800C0B200E0022045
:1019A000F2BD7047F0B585B00400002C01D10120D4
:1019B000C7E2AE4800680C2101400391AB480068C3
:1019C00080214902084002902078C0075ED5039824
:1019D000082807D003980C280DD1029880214902CD
:1019E000884208D1A248006880034FD5606800286B
:1019F0004CD10120A5E2606880214902884206D1CD
:101A00009B480168802252020A4302601FE060681E
:101A1000A021C90288420BD1954801688022D202D8
:101A20000A4302600168802252020A4302600EE00B
:101A30008F4801688F4A0A40026001688022520282
:101A400011400491049901688B4A0A400260606861
:101A500000280DD0FFF7FEFC0500854800688003D4
:101A600014D4FFF7F7FC401B6528F6D3032068E287
:101A7000FFF7F0FC05007E480068800306D5FFF7FD
:101A8000E9FC401B6528F6D303205AE22078800742
:101A900079D5E0680190202101980840002807D0FE
:101AA0007348026811430160019820218843019026
:101AB0000398042805D003980C2832D102980028F6
:101AC0002FD16B480168490704D50199002901D13C
:101AD000012036E2BC490A68BC4B1340226912025D
:101AE0001A430A60016809229143019A0A4302607D
:101AF00000F034FBB6495D4A126812091207120F52
:101B0000895CC840B3490860B348006801F040FBF5
:101B10006946087068460078002834D06846007826
:101B20000FE2019800281CD0514E306809218843EB
:101B3000019901433160FFF78DFC050030684007D3
:101B400006D4FFF787FC401B0328F7D30320F8E1F6
:101B50009D4801689D4A0A402169090211430160BC
:101B600011E0434E3068012188433060FFF772FC7A
:101B700005003068400706D5FFF76CFC401B0328C2
:101B8000F7D30320DDE12078C00677D5039800283D
:101B900035D137480068800504D5E069002801D1B7
:101BA0000120CEE188480168AD4A0A40616A1143CC
:101BB000016001680902090A226A12060A430260EA
:101BC0000120616A490B491C884080210902484371
:101BD0007F49264A126812091207120F895CC84011
:101BE0007C4908607C48006801F0D2FA69460870B8
:101BF00068460078002841D068460078A1E1E06995
:101C0000002821D01A4E30688021490001433160FC
:101C1000FFF720FC05003068800506D4FFF71AFCAA
:101C2000401B0328F7D303208BE1674801688C4AE7
:101C30000A40616A1143016001680902090A226AC7
:101C400012060A43026019E0094E3068BE4901409D
:101C50003160FFF7FFFB0500306880050ED5FFF708
:101C6000F9FB401B0328F7D303206AE10C10024064
:101C700000100240FFFFFEFFFFFFFBFF2078000780
:101C800026D56069002811D0B04E3068012101438B
:101C90003160FFF7DFFB05003068800718D4FFF7DD
:101CA000D9FB401B0328F7D303204AE1A74E306835
:101CB000012188433060FFF7CDFB050030688007C5
:101CC00006D5FFF7C7FB401B0328F7D3032038E1F5
:101CD0002078400700D48AE00020694648708020C0
:101CE00040059B4909680140002906D198490A68C6
:101CF00010430860012069464870964F80267600A0
:101D000038683040002810D1386830433860FFF719
:101D1000A1FB050038683040002806D1FFF79AFB88
:101D2000401B6528F6D303200BE1A068B04204D124
:101D3000864801680E43066024E0A068002809D1A7
:101D400082480168804A0A4002600168824A0A406B
:101D5000026017E0A068A021C900884209D17B4831
:101D600001688022D2000A43026001680E430660C7
:101D700008E076480168744A0A4002600168764AC1
:101D80000A400260A06800280ED0FFF763FB050040
:101D90006E480068800521D4FFF75CFB401B6F494B
:101DA0008842F5D30320CCE0FFF754FB05006748D9
:101DB0000068800512D5FFF74DFB401B674988423C
:101DC000F5D30320BDE000BF04100240FFE0FFFF99
:101DD00058B1000804000020000000206846407848
:101DE000012804D15A4801685D4A0A4002602078FF
:101DF000800637D5A06900281BD05A4E01213068D3
:101E00000843306058480268114301605748016830
:101E1000802292010A430260FFF71CFB0500306834
:101E200080071FD4FFF716FB401B0328F7D30320BE
:101E300087E04C4E30680121884330604B48016890
:101E40004B4A0A400260FFF705FB05003068800737
:101E500008D5FFF7FFFA401B0328F7D3032070E0F3
:101E6000FF1FFFFFA06A00286AD003980C2848D003
:101E7000A06A022833D13F4F3868B2490140396027
:101E8000FFF7E8FA04908026B6043868304000284E
:101E900007D0FFF7DFFA0499401A0328F3D3032091
:101EA0004FE0A9480168A94A0A40E16A1143226B40
:101EB0000A43616B11430160386880214904014382
:101EC0003960FFF7C7FA050038683040002837D17D
:101ED000FFF7C0FA401B0328F6D3032031E0254E5C
:101EE0003068984901403160FFF7B4FA0500306866
:101EF000800125D5FFF7AEFA401B0328F7D3032056
:101F00001FE0A06A012801D101201AE08E48006874
:101F100002900298802149020840E16A88420DD16E
:101F20000298F02189030140206B814206D102987A
:101F3000C02109040140606B814201D0012000E012
:101F4000002005B0F0BD00BFFFFEFFFF50100240B3
:101F50003810024000700040FFFBFFFF89130000B3
:101F6000FFFFFFEF08100240341002402000014044
:101F7000FFDFFFFF00100240F2B50400002C01D18A
:101F80000120DEE0724D28680100C907C90F0098E2
:101F9000814217D2286801218843009901432960B2
:101FA000FFF758FA070028680100C907C90F009811
:101FB000814207D0FFF74EFAC01B66498842F2D330
:101FC0000320BEE02078800706D55F480168F02234
:101FD0009143A2680A4302602078C00767D5606811
:101FE000022805D15C480068800319D40120A8E0CC
:101FF0006068032805D158480068800110D401208A
:102000009FE06068012805D153480068400707D465
:10201000012096E050480068800501D4012090E03E
:10202000494E306803218843616801433160FFF7FE
:1020300011FA0700606802280CD130680C210140B9
:10204000082934D0FFF706FAC01B42498842F4D36E
:10205000032076E0606803280CD130680C21014031
:102060000C2924D0FFF7F6F9C01B3A498842F4D373
:10207000032066E0606801280CD130680C21014023
:10208000042914D0FFF7E6F9C01B32498842F4D383
:10209000032056E030680C210140002907D0FFF7EB
:1020A000D9F9C01B2B498842F4D3032049E001260B
:1020B000009829683140884215D228680121884358
:1020C000009901432960FFF7C5F9070028683040EF
:1020D0000099884207D0FFF7BDF9C01B1D4988420F
:1020E000F4D303202DE02078400706D51648016878
:1020F0004F4A0A40E168114301602078000707D584
:10210000114801684B4A0A402169C9001143016026
:1021100000F024F848490C4A126812091207120FFD
:10212000895CC840454908604548006801F030F8BE
:1021300001000800C0B2002802D00800C0B200E0D0
:102140000020F2BDFFFFFFFE0C100240FFFF02FF68
:10215000002002408913000000100240F8B5274813
:1021600007680C213940042904D008290AD00C2919
:102170000AD031E033480068C00601D5324800E09B
:10218000324836E0324834E03249BA0C1207120FB6
:10219000895C0C00B90D8907890F491C0D00006886
:1021A000C00306D52A486043290000F0C2F80600A3
:1021B00010E024480068C00606D523486043290083
:1021C00000F0B7F8060005E020486043290000F061
:1021D000B0F8060030000CE01F480068400B4007D4
:1021E000400F009001200099491C8840802109027D
:1021F0004843F2BD11480068704700000C100240CF
:1022000080B5FFF7F7FF1549154A1268120A520701
:10221000520F895CC84002BD80B5FFF7EBFF0F4944
:102220000F4A1268D20A5207520F895CC84002BD99
:10223000FFF8FFFFFFC7FFFF58B1000804000020B0
:10224000000000200010024000093D000024F400BE
:1022500000127A00D8B300080410024070B50008DC
:102260000C10024030B4434351435D18010C0C0084
:10227000130C5C432D1980B2434392B251430024A6
:10228000C918644124040B04090C09195043C018EF
:10229000694130BC7047124224D0994228D970B5A8
:1022A00000251B4202D00C00002109E00024012679
:1022B00049186441944200D3A41A7641F8D33100FE
:1022C000012601E0764109D2001864416D41A41A4B
:1022D0009D41F7D2A4185D41B619F5D33000220014
:1022E0002B0070BD1B42D8D108B500F079FF08BDA6
:1022F00001D19042D3D202000B0000210020704790
:10230000F446002804D4494200F013F840426047E4
:102310004042002905D45FD000F00BF8404249420A
:102320006047494200F005F84942604703460B43C5
:10233000E6D40022030A8B420BD203098B4219D246
:1023400043088B422ED2411A00D201465241104618
:102350007047FF2209023FD012068B4205D31212AA
:1023600009028B4201D31212090203098B4219D3CD
:1023700000E0090AC3098B4201D3CB01C01A5241C4
:1023800083098B4201D38B01C01A524143098B420E
:1023900001D34B01C01A524103098B4201D30B01F7
:1023A000C01A5241C3088B4201D3CB00C01A52411C
:1023B00083088B4201D38B00C01A524143088B42E1
:1023C00001D34B00C01A5241884200D3401A5241F7
:1023D000CFD201461046704708B500F003FF08BD94
:1023E0007047704780B500F0FFFE00F013F800F072
:1023F00011FF00F075FF00F089FF00F0D5FFFEF738
:1024000027FFFEF73DFF01F02DF801F0ADF800F0D9
:102410005DFBFEE738B59CB03821002422000EADEC
:10242000280001F0B7F8142122006D46280001F0C1
:10243000B1F82421220005AD280001F0ABF81B48BB
:1024400001681B4A0A4080210901114301601820DC
:102450000E900120139015901694A0200002179062
:1024600018940EA8FFF79EFA002801D000F022F879
:102470000F20009001940294039404940021684674
:10248000FFF77AFD002801D000F014F8292005900C
:1024900007940A9480208002069005A801F0A2F813
:1024A000002801D000F006F81DB030BD00700040DB
:1024B000FFE7FFFF00B572B6FEE710B504000800A5
:1024C00011000200200001F065F8200010BD026834
:1024D000531C036011707047FEB5020000230020FA
:1024E000019000240868D840002800D1FFE00125B1
:1024F00008682E009E40064001960198002800D1F1
:10250000F3E0032648683040012803D04868304093
:10251000022820D19768BC461F00022047433000A4
:10252000B840674687430097C86884461F0002206A
:1025300047436046B840009F38430290029890603D
:102540005768280098408743486800092840984009
:1025500038430400546048683040032814D0D768DA
:10256000BC461F00022047433000B84067468743FF
:102570000097886884461F00022047436046B840A1
:10258000009F38430400D46048683040022824D1BA
:10259000D808042778431018006A0290029F009719
:1025A0000F208446180047077F0F042047436046EA
:1025B000B840009F87430097086984461800470782
:1025C0007F0F042047436046B840009F3843040013
:1025D000D80804277843101804621768BC461F0007
:1025E000022047433000B840674687430097486859
:1025F000304084461F00022047436046B840009F99
:102600003843040014604868C027BF020740002F09
:102610006BD08D4807682F4307608C4884469F081D
:10262000042047436046C05900900F27BC461F0056
:102630003000384004277843674687400098B84305
:10264000A027FF05BA4201D1002517E0874CA2421E
:1026500014D0874CA24201D102250FE0854CA24242
:1026600001D135000AE0844CA24201D1042505E0E5
:10267000824CA24201D1052500E006251C0026401F
:1026800004246643B540054370489C0804267443FF
:1026900005517B4C2068019EB0434E68F60202D57E
:1026A0000500019828432060764D2C68019EB443B4
:1026B0004E68B60202D52000019C04432C60724D86
:1026C0002868019EB0434E68B60302D50400019805
:1026D000204328606D4D2C68019EB4434E68F6037C
:1026E00002D52000019C04432C605B1CFAE6F7BD78
:1026F000F2B582B00100002200200090002001907D
:102700000298D040002800D19DE0012302981C00CF
:102710009440044000940098002800D191E04B4878
:10272000940804256C43005903240F251600270044
:102730003740042677432E00BE4006400196A02075
:10274000C005814201D1002619E04848814201D1EB
:102750001E0014E04648814201D102260FE04548A0
:10276000814201D126000AE04348814201D104267A
:1027700005E04248814201D1052600E00626019885
:10278000844617002000384004277843864060467E
:10279000B04228D13D480668009FBE4306603A48D3
:1027A0000668009FBE43066036480668009FBE4329
:1027B000066033480668009FBE430660160020008E
:1027C0003040042670432E00864001961F4E90082C
:1027D00004277843375801988743B4469008042665
:1027E0007043664637500868170002267743260074
:1027F000BE4006430E60D008042670430E18D00871
:10280000042778430818006AAC4615006F077F0F4D
:1028100004256F436546BD40A8433062CD6816006D
:10282000022046432000B0408543CD604868934075
:10283000984348608868130002256B439C40A0437E
:102840008860521C5CE7F7BD34100240080001406C
:1028500000B51300DBB2002B03D00B009BB28361E9
:1028600002E00B009BB2836200BD00000004005038
:1028700000080050000C005000100050001C0050D8
:10288000080401400C04014004040140000401401C
:1028900000B5010049B2002905D40121C206D20EBB
:1028A0009140484A116000BD00B5010049B20029BD
:1028B00009D40121C206D20E9140434A1160BFF3F0
:1028C0004F8FBFF36F8F00BDF0B5020052B2002AE8
:1028D0001CD403223D4B040064B2A40804256C43BD
:1028E0001C59FF251600064008277E43B540AC431F
:1028F0008D01EDB202400826724395402543020047
:1029000052B29208042462439D5022E00F24304AC0
:10291000032305006DB22540083DAD08042675432C
:10292000060076B23440083CA408042674431659C5
:10293000FF27BC461C00044008277C436746A7408D
:10294000BE438C01E4B2034008277B439C403443E0
:102950005451F0BD10B50400601E80214904884226
:1029600001D301200EE0601E1A49086003210020F7
:10297000C043FFF7A9FF0020174908600720174947
:102980000860002010BD70B505000C001600210085
:10299000280040B2FFF798FF70BD10B5040020007A
:1029A00040B2FFF775FF10BD10B50400200040B223
:1029B000FFF77AFF10BD10B504002000FFF7CAFF33
:1029C00010BD000000E100E080E100E000E400E074
:1029D0001CED00E014E000E018E000E010E000E092
:1029E00010B5040000F0CEFF012010BD38B5050081
:1029F0008948017800290BD101210170874880881E
:102A0000874908802900C9B2984800F088FA1FE079
:102A10008349824CA2880B889A4212D1002101700E
:102A2000A2882168022001F05AF87EA1022001F05C
:102A30006AF80121200001F095F8200001F03EF82D
:102A400006E0A08808802900C9B2884800F067FA2B
:102A5000012032BD10B50400FEF72EFF012010BD8D
:102A600010B504008249032001F05BF804217F487F
:102A700000F055FA012010BD01000120704701004F
:102A80000120704701000120704780B500F0AAFEC8
:102A900001F058F901BD1CB500F03BF801F0B8F9A0
:102AA00002F0E0F902F0DEF9724C00200090724B67
:102AB00000220021C943200000F09CFE6F49200045
:102AC00000F040FF200000F0B5FE13BDF8B5002473
:102AD00068460470FFF7D9FFFFF7DDFF6849032060
:102AE00001F011F86749032001F00DF86649032051
:102AF00001F009F8270000F018F805003D4301F047
:102B000093F906002E4302F0EDF930436946087050
:102B1000F0E780B500F088F800F08AF85B485C497F
:102B200008605C485C49086001BDF8B500252800D4
:102B30002F002C002000C0B2072841DA4B4E2000A5
:102B4000C0B21021484330184078012836D1200007
:102B5000C0B2042801D0012007002000C0B210211B
:102B6000484330184068002810D0FEF773FC21005D
:102B7000C9B21022514371184968401A2100C9B2E4
:102B80001022514371188968884217D32800210008
:102B9000C9B21022514371184870FEF75BFC210046
:102BA000C9B210225143711848602000C0B2210000
:102BB000C9B2102251437118C9688847641CB9E72B
:102BC0002A484121415C002902D1042100F0A7F9E3
:102BD0003800C0B2F2BD80B50021244800F08CF965
:102BE00001BD10B504008B49032000F08CFF0521C6
:102BF0001E4800F081F900F001F810BD704738B5AB
:102C000005000C00FA239B00220092B22900934891
:102C1000FDF796FA31BD0000461A0020780000202A
:102C2000421A00200D0A000080B5FEF729FB01BD05
:102C300080B564228A498948FEF770FE8948016898
:102C400009680422914300680160002086490880D9
:102C5000002201210E20FFF796FE0E20FFF79DFEB9
:102C600001BD80B57D48FDF71BFB01BD08000020BC
:102C7000DCB00008BC190020E32B000880A9030089
:102C8000F4AF00086CB0000888B00008D72B00082B
:102C9000281A0020FF2B0008381A0020FEB5050076
:102CA00000242600220070480088694688806D480C
:102CB000C069002820D16D4881882B009BB2C918BB
:102CC0009623DB00994201D32100818021002A0054
:102CD00089B292B291420BD201688288891822008F
:102CE00092B25F4B2700BFB2DB5D8B54641CEDE7F3
:102CF00081884919818074E068468088290089B2FA
:102D0000884229D268468088281A06005748818858
:102D100033009BB2C9189623DB00994201D32100EE
:102D200081802100320089B292B2914210D20168B2
:102D300082888F1823009BB2494A944669468A8844
:102D4000210089B251186246515CF954641CE8E7CD
:102D500081888919818042E0642069468988401A07
:102D60000600424881882B009BB2C91833009BB2F1
:102D7000C9189623DB00994201D3210081802100EC
:102D80000A00330092B29BB29A4212D20268838840
:102D9000D7180B009BB20093314B9C466A46938830
:102DA0000A0092B29A1863469A5C009BFA54491C36
:102DB000E6E721002A0089B292B291420BD2016863
:102DC00082888918220092B2254B2700BFB2DB5DB2
:102DD0008B54641CEDE78188AA19891881802248E8
:102DE0000580204FF86900280AD164221C491B483D
:102DF000FEF794FD3868006804218843396808604C
:102E000001211B4800F078F8F7BD01001948016066
:102E100000207047A4B0000880B5174801688022E0
:102E2000D2010A4302600168144A0A4002600B485A
:102E3000FEF7C8FA002002BD38B505000C00104AA4
:102E40001068002804D0210089B228001268904739
:102E50000020084909688847002032BDB4140020CA
:102E6000BC170020BC180020401A00207800002069
:102E7000080000201C1A002024100240FFBFFFFFA2
:102E8000381A002080B5012217491848FDF7C8F903
:102E9000002201211D20FFF776FD1D20FFF77DFD9B
:102EA00001BD704738B504000D480F490A78036822
:102EB00085885A55021D83885B1C138080880C4BC3
:102EC000984201D30020108001220848FDF7A8F99C
:102ED0000120044908700221064800F020F831BDA5
:102EE000300700204A1A0020491A00202C14002024
:102EF000FF010000F401002010B4020001200B00CB
:102F0000DBB210246343D318587000200B00DBB2EF
:102F100010246343D3185860012010BC704738B5A3
:102F200005000C0001202100C9B21022514369188C
:102F30004870FEF78FFA2100C9B210225143691878
:102F40004860012032BD2E00F7B586B01F00002476
:102F50002000694648802000694688802F4A107A00
:102F60000699884202D20420C04354E00798D168F1
:102F700001400798814202D00520C0434BE05068D1
:102F8000002807D00898002804D000A9891C02A8AE
:102F9000526890470EAE8025AD0033003A002900FC
:102FA000204802F0EBF86946888000F0D6F86946C0
:102FB000684680886A465288801880B200F07AF8A5
:102FC0000021C943884222D020006946498880B246
:102FD00088420ED202A8210089B2405C10496A469C
:102FE0001288885468460088401C69460880641C22
:102FF000EAE733003A00290009486D462D88401958
:1030000002F0BCF800F0AEF800F00EF803E000F0BB
:10301000A9F80220C04309B0F0BD0000A4190020A7
:103020002C0C00202C100020F8B500252C002F00BF
:1030300000F09DF8002838D100F08FF81C4E308A3F
:10304000718A88422FD0B07801280ED13088318A19
:10305000401AB082B01C0221017029003180B18A6F
:10306000002902D1290001703582B07800280DD1E5
:10307000308A718A884204D2708A318A401AB082BA
:1030800004E08020C000318A401AB0823C48318A76
:103090004018070000F07AF8B18A3800394A92687F
:1030A0009047040001E000F05DF8200040B2F2BD5E
:1030B000A419002070B502000020C043324B5C8A86
:1030C0001D8AAC4217D18024E4005D8A641B150080
:1030D0002600ADB2B6B2B5422CD315001E8AADB2F1
:1030E000B54227D201259D705D8A1D801D8A2C0066
:1030F00000255D821EE01C8A5D8AAC4217D28024C6
:10310000E4005D8A641B15002600ADB2B6B2B5427C
:1031100010D315001E8AADB2B5420BD201259D70A9
:103120005D8A1D801D8A2C0000255D8202E01C8ABC
:103130005D8A641B15002600ADB2B6B2B5420AD254
:103140005D8A0D805D8A1600B6B2AD19AD05AD0D74
:103150005D820023180000B270BD0B48C18A491C73
:10316000C18270470848C18A491EC182704700B5B4
:103170000548C08A002801D1002000E0012000BDE0
:103180002C0C0020E4B30008A41900207047FEE7CF
:1031900010B50400FA2080000E490978FFF7C9F83D
:1031A00001000D480068FFF7C4F8FFF704FC002891
:1031B00001D001200CE0042C09D2002221000020C3
:1031C000C043FFF7E0FB05480460002000E0012059
:1031D00010BD00BF7A07002004000020000000207E
:1031E0007047FEE77047FEE710B500240848016805
:1031F00040220A4302600320FFF7CAFF002802D0E2
:103200000120040001E002F09BF82000C0B210BDD4
:1032100000200240F8B586B0142200216846FFF76E
:103220004CF904212A4802680A43026002681140EE
:10323000059105990126016831430160016831401B
:1032400005910599022701683943016000683840FB
:1032500005900598002201211E48FFF7F9FA002287
:1032600080214901A020C005FFF7F2FAC02000022A
:103270000090032401940025029569461648FFF743
:103280002BF916480090019402956946A020C005CC
:10329000FFF722F9009601960295039569460D48BD
:1032A000FFF71AF932200090019402956946094807
:1032B000FFF712F9802040010090019602950397D4
:1032C0006946A020C005FFF707F907B0F0BD00BFB1
:1032D0002C1002400004005000080050EC090000CF
:1032E00080B5012008490A6802430A60096808405D
:1032F00000900098002200210A20FFF744FB0A20DA
:10330000FFF74BFB01BD00BF301002401CB5082287
:1033100000216846FFF7D1F81F4C204820602000AC
:1033200002F01EF8002801D0FFF7C4F8002000903A
:10333000019000226946200002F028F8002801D000
:10334000FFF7B8F813BD10B586B0040014220021B1
:1033500001A8FFF7B2F820681049884219D1104837
:103360000168802292050A43026001200D490A6823
:1033700002430A60096808400090009810200190FC
:10338000032002900020039001A9A020C005FFF7B0
:10339000A3F806B010BD0000D4190020007400404E
:1033A000381002402C10024010B5294C29482060EA
:1033B000C120C00060600020A0600121E1602061A8
:1033C0006061A061E0612062200002F009F800283D
:1033D00001D0FFF76FF80021200002F00DFB00285C
:1033E00001D0FFF767F80021200002F038FB002829
:1033F00001D0FFF75FF810BD10B586B004001422AD
:10340000002101A8FFF759F82068124988421CD111
:10341000022011490A6802430A60096808400090C6
:103420000098C020019012200290002003900320F9
:1034300004900120059001A90848FFF74DF80848BD
:103440000168802292030A43026006B010BD0000AA
:1034500020180020005400402C10024000040050AE
:103460003810024070B590B0142200210BA8FFF76D
:1034700024F8042200216846FFF71FF828220021C3
:1034800001A8FFF71AF8354D3548286000246C6014
:103490007F20A860FF20E8602C616C61AC61EC616A
:1034A000280002F011FB002801D0FFF703F80BA859
:1034B0002100017021004170210081700E940F9451
:1034C00001220BA9280002F064FB002801D0FEF7BE
:1034D000F1FF012668463100017031004170310072
:1034E00081702100C17001226946280002F001FCB0
:1034F000002801D0FEF7DEFF01A8210001702100A5
:1035000041702100817002940494059406940794FC
:10351000089420214654802040000A90012201A9ED
:10352000280002F087FC002801D0FEF7C3FF10B08E
:1035300070BD10B504002068094988420DD10948C2
:1035400001688022D2020A43026000220021022088
:10355000FFF719FA0220FFF720FA10BD2C190020FE
:10356000002800405010024080B50848084901601A
:1035700003214160FA218900C160816002F092FE5E
:10358000002801D0FEF796FF01BD00BFE81900201A
:10359000003000401206130A1A43130C1A4300BFEE
:1035A000094205D0830705D00270401C491EF9D19D
:1035B000704700001300103906D330B41400150012
:1035C00010393CC0FCD230BC490700D30CC000D538
:1035D00004C0890002D30280801C002900D502703B
:1035E0007047FEE7FEB504000020694608702078A9
:1035F000800600D491E020788006802040056B4949
:1036000009680140002906D168490A68104308602A
:1036100001206946087080277F00654D2868384082
:10362000002811D1286838432860FDF713FF029065
:1036300028683840002807D1FDF70CFF0299401A8E
:103640006528F5D30320AFE05A480068C0218903FC
:1036500001406068C0229203024091420BD0C0201A
:10366000800262680240824205D1524800688003AD
:1036700001D5012098E0504DC026B60228683040A0
:1036800001900198002829D0019861683140884252
:1036900024D02078800621D528684849014001912E
:1036A00028688021090301432960286844490140B2
:1036B00029600198286001980740002F0ED0FDF77F
:1036C000C9FE02902868800508D4FDF7C3FE029960
:1036D000401A3C498842F5D3032065E020788006F3
:1036E00012D560683040B04209D132480168364A8C
:1036F0000A406168C0239B030B40134303602868A2
:1037000061680E4006432E6068460078012804D1A7
:10371000264801682D4A0A4002602078C00706D575
:103720002B48016803229143A2680A430260207873
:10373000800706D5264801680C229143E2680A43B7
:1037400002602078400706D521480168214A0A40D6
:103750002169114301602078000706D51C480168E3
:103760001D4A0A406169114301602068C00506D501
:1037700017480168114A0A40A16911430160207885
:10378000400606D512480168144A0A40216A1143CE
:1037900001602078000606D50D480168104A0A40ED
:1037A000E169114301600020FEBD000038100240B5
:1037B000007000400010024050100240FFFFFCFF6C
:1037C000FFFFF7FF89130000FFFFCFFFFFFFFFEFB1
:1037D0004C100240FFF3FFFFFFCFFFFFFFFFFFFB97
:1037E000FFFFF3FF80B50020654908608C48006842
:1037F000804702BDF7B504001F00089D002C17D0BC
:103800003800002814D00026266001988449496AAF
:103810008847606030002072300060723000A07213
:10382000E76025616846007AE0726661002000E08A
:103830000120FEBDFEB5040000263700002C38D064
:10384000200000F0EFF8002833D1607A002830D152
:1038500060680090724D286A804701900098019935
:10386000884201D2019800900098206030002072B8
:1038700001206072A672424E3068002805D1286986
:103880008047200000F008F915E0A8698047029001
:1038900020680299401820602068316809688842D1
:1038A00003D2200000F0F8F805E0200000F0DEF878
:1038B00001E0012007003800C0B2FEBDFEB50700E0
:1038C0000024200069460870002F35D02C4D286850
:1038D00001902E680120B872286800282FD020009F
:1038E00078722868B84212D12000296808722868C6
:1038F0004069002806D0286840692860286800F0E0
:103900009FF816E04648C06880472C6011E0002E02
:103910000FD0BE420AD17069002803D076690198A1
:10392000466102E026000198466102E00196766950
:10393000EDE76846047002E00120694608706846B9
:103940000078FEBD70B505000C000026002D02D1E8
:103950000120060010E020003149496A884768606C
:10396000280000F05FF8002806D02800FFF7A6FF27
:103970002800FFF75FFF06003000C0B270BD0000F6
:103980002C1A0020FEB5264D6869804701902869F1
:10399000804707000198381A0090474E3068002889
:1039A0000FD03068040000982168884204D2206853
:1039B0000099401A206001E0002020606469002C1A
:1039C000F1D1306800281FD030680068002805D089
:1039D000A869804731680968814215D230680400BF
:1039E00030684069306000200100217260722069F7
:1039F000E1688847E07A0128E3D1A07A0028E0D185
:103A00002000FFF717FFDCE73068002806D0306899
:103A1000007A002802D1306800F012F8F7BD0000EB
:103A200030AF000800B5010023480268002A05D025
:103A30008A4201D1012002E05269F7E7002000BD6F
:103A400070B504001B4D286A8047060001202072D3
:103A5000A869804721688019814203D2A8698047FC
:103A6000801920602068A968884770BD10B5124A87
:103A70001168126852694B69002B09D013680468F9
:103A8000A34202D211005269F5E74861426102E0A7
:103A900048610023436110BD38B50400064805683D
:103AA000002D01D000212972656104600068FFF7D4
:103AB000C7FF31BD30AF00082C1A002030B50022FE
:103AC00011000B0084889BB2A34206D21300046845
:103AD0000D00ADB26355491CF3E7828030BD70B56F
:103AE00005000C0016001C4800782900C9B2884265
:103AF00008D31A4A1068002804D0310089B2200087
:103B00001268904770BD38B505000C00200002F027
:103B10000BFC020092B221002800C0B2FFF7DFFFC9
:103B200031BD70B506000C00200002F0FDFB020064
:103B300092B221003000C0B2FFF7D1FF084D2868D3
:103B4000002807D0200002F0EFFB010089B220001E
:103B50002A68904770BD00007B070020381A0020BB
:103B6000341A0020F3B583B004000020C043009055
:103B700000226F4803C801AB03C3083B002528009F
:103B8000A18880B2884223D22068290089B2405C93
:103B90003D2805D02068290089B2405C3F2800D12B
:103BA00016E02068290089B2405C41280EDB2068BD
:103BB000290089B2405C5B2808DA2068290089B2B4
:103BC000405C203021682A0092B288546D1CD6E7F0
:103BD00000273800C0B2492800DBA6E02100554884
:103BE0003A00D2B210235A438018083002F0A3FBE7
:103BF00000900098002800D595E04E483900C9B2E1
:103C00001022514340184068002800D18BE04948F9
:103C10003900C9B21022514340184068002808D129
:103C2000FA239B00A28821004348FCF789FA01206F
:103C30007CE0424E3000FFF741FF0020010089B2D6
:103C4000A288009BD21A914221DA2168009A891831
:103C5000020092B2895C3F290AD02168009A891833
:103C6000020092B2895C3D2902D0B188802900DB34
:103C70000DE02168009A8918020092B2895C3268CE
:103C8000B388D154B188491CB180401CD6E7294A79
:103C900000993B00DBB210256B43D3189B89C918F0
:103CA0000091009D2800A18880B2884222D220681D
:103CB000290089B2405C0D280CD1280080B2A1886F
:103CC000491E884206DA2068290089B240184078E7
:103CD0000A280FD001A88188802909D221682B00E9
:103CE0009BB2C95C019B868899558188491C81805B
:103CF0006D1CD7E76846007C114908706846007C57
:103D0000401E012802D9801E0AD00AE0002101A825
:103D10003B00DBB210267343D2185268904700E094
:103D2000FFE7012002E07F1C53E7002005B0F0BD53
:103D3000F0B5000890020020B41400208802002092
:103D4000481A002010B586B00E4C002201A92000B0
:103D500001F09DFF00226946200002F03DF80A486C
:103D600001A98A7882704A784270097801706946A0
:103D70000A78C2708A7802714A784271C978817172
:103D800006B010BD2C190020041A002001000120EB
:103D9000704770B50400494D494E307869788842C3
:103DA00008D04848697804225143405800F017F879
:103DB000687830702100C9B24348FFF7B0F801209D
:103DC00070BD38B50400414D280003F08BF9280080
:103DD000FFF774FE012032BD01000120704710B5CD
:103DE00004003B483B490160446000218160C160A0
:103DF00001610C2242618161C16101624162FCF793
:103E00005FF9002801D0FEF755FBFFF73BF810BD26
:103E100080B503F042F92B482849497804225143E0
:103E20004058FFF7DCFF01BDF8B500242000270053
:103E300025002800C0B204283DDA234E2800C0B275
:103E40001021484330184078012832D10120070062
:103E50002800C0B21021484330184068002810D014
:103E6000FDF7F8FA2900C9B21022514371184968C8
:103E7000401A2900C9B2102251437118896888423A
:103E800017D320002900C9B210225143711848707D
:103E9000FDF7E0FA2900C9B21022514371184860B9
:103EA0002800C0B22900C9B2102251437118C96854
:103EB00088476D1CBDE73800C0B2F2BD780700200E
:103EC000471A0020C0010020F40100203007002024
:103ED0002C1400200038014010B504000021D14806
:103EE00003F0C6FA012010BDF8B584B00600A74D56
:103EF0000024E44302940220019003A800900123CF
:103F00000622B421280001F0E1FA002816D103A806
:103F100041780902007801430F00380080B203F0B5
:103F200003FB9BA20CCA03F019FB9BA20CCA03F073
:103F3000D7FB03F0AFFCBC49886004E00020BA491D
:103F40008860FFF731FA02940220019003A80090E4
:103F500001230722B421280001F0B8FA00281AD161
:103F600003A841780902007801430F00380080B2AD
:103F700003F0DAFA86A20CCA03F0F0FA86A20CCAA1
:103F800003F0AEFB03F086FCA74948600221A74876
:103F9000FEF7B2FF04E00020A3494860FFF704FAEF
:103FA000A14C251D606800F0FBF82860606800F0F7
:103FB00092F828603100C9B29C48FEF7B0FF01209A
:103FC00005B0F0BDFEB5060000250095002701975D
:103FD000974C2078002820D1934A5068002103F0A4
:103FE0008BFC1BD35068934903F099FC0500A08813
:103FF0006188401A03F0F8FC290003F000FD01007D
:104000000D00608803F0E0FC290003F050FD0190F2
:10401000019803F0DDFD050000E0E5882B0000229B
:104020000021804803F069FA6088281A03F0CCFC6C
:104030000090A0886188401A03F0D6FC0100009827
:1040400003F06DFC04008320C005210003F0D7FCC1
:1040500001008120C00503F02AFD7349086031008A
:10406000C9B27248FEF75BFF0120FEBD10B5040027
:10407000714A1078012816D16B4B9068596803F08B
:104080003BFC04D35868516803F036FC05D201228A
:104090000121C448FEF7DCFB0AE000220121C148EF
:1040A000FEF7D6FB04E000220121BE48FEF7D0FB5C
:1040B0002100C9B25D48FEF732FF012010BD10B5E6
:1040C0000400B94802F023F92100C9B25748FEF7AD
:1040D00026FF012010BDF0B585B00400B34DB448F3
:1040E0000490002200922000002103F085FD40D0C2
:1040F0000094B04EB04F3868009903F010FD3100C5
:1041000003F08AFD07D90098396803F008FD3100F3
:1041100003F082FD04D8A948290003F070FC0500D3
:10412000A74E30680390A74F3868290003F0BFFC02
:1041300001900199049803F0BAFC0100019803F082
:10414000EEFB02900098039903F0E9FC010002984D
:1041500003F055FC0100039803F0A9FC3060FE2039
:104160008005029903F0DBFC019903F048FC3860FC
:1041700005E0FE2080059349086091480260904860
:1041800001688D4A1160006805B0F0BD201800205C
:104190007B14AE47E17A943F66666666661271C02C
:1041A000FEB50400002502952E0001951E4F3869CA
:1041B000B96903F021FD25D07869F96903F01CFD88
:1041C00020D0F869796903F0AAFC0090B8693969D0
:1041D00003F0A5FC0100009803F0A1FB060038697C
:1041E000310003F00CFC0100786903F098FC0190A9
:1041F0003000210003F003FC0100019803F057FC9C
:10420000010000E02100F86803F051FC002103F0F8
:1042100073FB00D228006C4903F0FEFC01D805496D
:104220000800FEBDD41900205019002034020020DF
:10423000101A002000007A43F8190020F3B593B05B
:1042400032210024220005AD2800FFF7A3F9260043
:104250000194009404940394029413A80078002815
:1042600003D002280BD004D30FE014989E49C860F5
:104270000BE09D48416801611499416105E09A484D
:10428000416881611499C161FFE7974CE06803F0D0
:10429000C4FE0190206903F0C0FE0090606903F045
:1042A000BCFE0700A06903F0B8FE0500E06903F05A
:1042B000B4FE040005A80199090E3200D2B281545F
:1042C000761C0199090C3200D2B28154761C0199F6
:1042D000090A3200D2B28154761C01993200D2B25E
:1042E0008154761C0099090E3200D2B28154761C9A
:1042F0000099090C3200D2B28154761C0099090A47
:104300003200D2B28154761C00993200D2B281546C
:10431000761C390E3200D2B28154761C3900090C59
:104320003200D2B28154761C390A3200D2B28154A2
:10433000761C39003200D2B28154761C290E32002C
:10434000D2B28154761C2900090C3200D2B28154B9
:10435000761C290A3200D2B28154761C2900320020
:10436000D2B28154761C210E3200D2B28154761C16
:104370002100090C3200D2B28154761C210A32008D
:10438000D2B28154761C21003200D2B28154761C04
:104390003200D2B292B205A9A14803F0BDFE15B019
:1043A000F0BD000000040050E81900205F70893063
:1043B000BD3786350100A040241A002000007A4451
:1043C000201A00208402002001007A43FEB5002458
:1043D000019400942700260091480078C0B200287C
:1043E00079D090480078C0B200068F490978C9B2E8
:1043F000090401438D480078C0B2000208438C498B
:104400000978C9B2014301918A480078C0B2000618
:10441000A4490978C9B209040143A3480078C0B28D
:1044200000020843A1490978C9B201430091A0489C
:104430000078C0B200069F490978C9B20904014357
:104440009D480078C0B2000208439C490978C9B26F
:1044500001430F009A480078C0B2000699490978D4
:10446000C9B20904014398480078C0B20002084369
:10447000AB490978C9B201430E00AA480078C0B21E
:104480000006A9490978C9B209040143A748007880
:10449000C0B200020843A6490978C9B201430C0022
:1044A000114D29000C31019803F0E9FC290010316D
:1044B000009803F0E4FC29001431380003F0DFFC1D
:1044C00029001831300003F0DAFC29001C312000EB
:1044D00003F0D5FC07E000210348C16001614161A0
:1044E000D6498161C161F7BD50190020F7B590B080
:1044F00032210024220002AD2800FFF74BF82500EE
:10450000019400949D4E10A8007830701298B0600D
:1045100011987060B06803F080FD0700706803F0C8
:104520007CFD040002A831782A00D2B281546D1CAF
:10453000390E2A00D2B281546D1C3900090C2A00B0
:10454000D2B281546D1C390A2A00D2B281546D1C3A
:1045500039002A00D2B281546D1C210E2A00D2B239
:1045600081546D1C2100090C2A00D2B281546D1CAB
:10457000210A2A00D2B281546D1C21002A00D2B235
:1045800081546D1C2A00D2B292B202A9954803F060
:10459000C3FD13B0F0BD70B50020060004009149C2
:1045A0000978C9B2002933D0744DA5480078287025
:1045B000A4480078C0B20006A3490978C9B209042A
:1045C0000143A2480078C0B200020843A04909781C
:1045D000C9B201430E009F480078C0B200069E4950
:1045E0000978C9B2090401439C480078C0B20002AE
:1045F00008439B490978C9B201430C0029000831DE
:10460000300003F03CFC291D200003F038FC05E0DD
:104610005A490870894888600020486070BD0000D1
:1046200080F7010882F7010883F7010884F7010881
:1046300085F7010886F70108F0B58DB006000D007A
:104640003221002422006F463800FEF7A3FF30001D
:10465000290080B289B2884222D2A748468085804C
:104660006946428892B2120A2300DBB2CA54641C23
:1046700042882300DBB2CA54641C828892B2120AB8
:104680002300DBB2CA54641C80882200D2B2885452
:10469000641C2200D2B292B26946AD4803F03CFDE0
:1046A0000DB0F0BD87F7010888F7010889F7010808
:1046B0008AF701088BF701088CF701088DF70108CC
:1046C0008EF701088FF7010890F7010800B5A048A0
:1046D0000078C0B200281DD08748811C42889D4BBD
:1046E0001B78DBB21B0213430B8042889A4B1B786A
:1046F000DBB21A430A80011D8288984B1B78DBB21B
:104700001B0213430B808088954A1278D2B2104363
:10471000088004E0784800214180CF49818000BDB5
:1047200091F7010892F7010893F7010894F701083F
:1047300095F70108F0B591B005000C003C2100266A
:10474000320002AF3800FEF725FF6846868003215D
:104750001A2002F082FC0B2000900023A64A01A937
:1047600002A803F075FBFA239B006846828802A921
:10477000BA48FBF7E5FC11B0F0BD0000F8190020C5
:10478000F1B592B00F003C210024220002AD2800B8
:10479000FEF700FF200069468880984803F093FCEC
:1047A00097480025C56005614561244E8661C66154
:1047B0000C4803F088FCAA480470866045600D2010
:1047C00000900023A74A01A902A803F041FBFA23A5
:1047D0009B006846828802A9A048FBF7B1FC13B091
:1047E000F0BD000000F8010870B590B006000D00A3
:1047F00003A89D49322203F0E5FC9C4803C801AAA6
:1048000003C2083A03A8019001AC0023984802783B
:10481000211D03A803F0A4FA02200090002395A212
:10482000211D03A803F014FBFA239B00A288019921
:104830008A48FBF785FC10B070BD000000007A4389
:1048400002F8010803F8010804F8010805F8010856
:1048500006F8010807F8010808F8010809F8010836
:104860000AF80108F8B505000E00002007002968C5
:104870000978302938DB296809783A2934DA0400C4
:104880000100C9B2AA8889B291420FD229680200F8
:10489000D2B2895C302905DB29680200D2B2895C7A
:1048A0003A2900DB02E0641C401CE9E72100C9B2A0
:1048B000286803F083FB0700FF2F0DD86C48417870
:1048C0003800C0B202F0C9FBFA239B000222A2A169
:1048D0006248FBF735FC0EE0FA239B0005229F4956
:1048E0005E48FBF72DFC06E0FA239B0005229B495E
:1048F0005A48FBF725FCF1BD101A002070B590B0A6
:1049000006000D0003A89649322203F05BFC95488F
:1049100003C801AA03C2083A03A8019001AC00230E
:1049200053484278211D03A803F01AFA0220009090
:10493000002350A2211D03A803F08AFAFA239B004A
:10494000A28801994548FBF7FBFB10B070BD000041
:1049500080F8010882F8010883F8010884F801084A
:1049600085F80108F8B505000E0000200700296849
:104970000978302938DB296809783A2934DA0400C3
:104980000100C9B2AA8889B291420FD229680200F7
:10499000D2B2895C302905DB29680200D2B2895C79
:1049A0003A2900DB02E0641C401CE9E72100C9B29F
:1049B000286803F003FB07000C2F0DD23900C9B2A1
:1049C0002B48007802F049FBFA239B00022262A1E7
:1049D0002248FBF7B5FB0EE0FA239B0005225F4956
:1049E0001E48FBF7ADFB06E0FA239B0005225B495E
:1049F0001A48FBF7A5FBF1BDF0B3000880F70108EA
:104A00005019002070B590B006000D0003A88F4922
:104A1000322203F0D7FB8E4803C801AA03C2083A2A
:104A200003A8019001AC00238A480278211D03A845
:104A300003F096F90220009000230EA2211D03A886
:104A400003F006FAFA239B00A28801990348FBF7BA
:104A500077FB10B070BD0000FF0F0000B414002001
:104A6000F819002068B10008C4AD000898B5000826
:104A7000780700200D0A0000F8B505000E000020A0
:104A8000070029680978302935DB296809783A292F
:104A900031DA04000100C9B2AA8889B291420FD26A
:104AA00029680200D2B2895C302905DB296802003E
:104AB000D2B2895C3A2900DB02E0641C401CE9E7C1
:104AC0002100C9B2286803F079FA0700022F0AD240
:104AD000380060490870FA239B0002221EA1C148D9
:104AE000FBF72EFB0EE0FA239B0005221B49BD4875
:104AF000FBF726FB06E0FA239B0005221749B9487D
:104B0000FBF71EFBF1BD70B590B006000D0003A8C9
:104B10008C49322203F056FB8B4803C801AA03C21A
:104B2000083A03A8019001AC00234A48C288211D1D
:104B300003A803F015F9022000900023AAA2211D6A
:104B400003A803F085F9FA239B00A2880199A548E0
:104B5000FBF7F6FA10B070BD4F4B000088B50008A7
:104B6000F8AD0008A0B50008F8B505000E0000205B
:104B7000070029680978302937DB296809783A293C
:104B800033DA04000100C9B2AA8889B291420FD277
:104B900029680200D2B2895C302905DB296802004D
:104BA000D2B2895C3A2900DB02E0641C401CE9E7D0
:104BB0002100C9B2286803F001FA070080204001F3
:104BC00087420AD238002349C880FA239B00022278
:104BD0009FA18448FBF7B4FA0EE0FA239B0005225C
:104BE0009C498048FBF7ACFA06E0FA239B000522BB
:104BF00098497C48FBF7A4FAF1BD70B590B0060067
:104C00000D0003A89449322203F0DCFA934803C84C
:104C100001AA03C2083A03A8019001AC00230D4881
:104C20004288211D03A803F09BF802200090002376
:104C30006DA2211D03A803F00BF9FA239B00A288A3
:104C400001996848FBF77CFA10B070BD2CAE0008E3
:104C5000A8B50008101A0020F8B505000E000020C5
:104C600007002968097830293ADB296809783A2948
:104C700036DA04000100C9B2AA8889B291420FD283
:104C800029680200D2B2895C302905DB296802005C
:104C9000D2B2895C3A2900DB02E0641C401CE9E7DF
:104CA0002100C9B2286803F089F90700802040017B
:104CB00087420DD26A488188380080B2FFF7BCFC79
:104CC000FA239B00022262A14648FBF739FA0EE064
:104CD000FA239B0005225F494248FBF731FA06E0C0
:104CE000FA239B0005225B493E48FBF729FAF1BDF8
:104CF00070B590B006000D0003A87849322203F089
:104D000061FA774803C801AA03C2083A03A80190D0
:104D100001AC002352488288211D03A803F020F82B
:104D200002200090002330A2211D03A803F090F878
:104D3000FA239B00A28801992A48FBF701FA10B0D8
:104D400070BD000060AE0008B0B50008F8B5050001
:104D50000E00002007002968097830293ADB29680D
:104D600009783A2936DA04000100C9B2AA8889B262
:104D700091420FD229680200D2B2895C302905DB4A
:104D800029680200D2B2895C3A2900DB02E0641C87
:104D9000401CE9E72100C9B2286803F00FF90700B9
:104DA0008020400187420DD2390089B22C484088CA
:104DB000FFF742FCFA239B00022225A10948FBF7DA
:104DC000BFF90EE0FA239B00052222490548FBF7B4
:104DD000B7F906E0FA239B0005221E490148FBF7BC
:104DE000AFF9F1BDB41400200D0A0000F8B590B081
:104DF00006000D0003A86049322203F0E3F95F4882
:104E000003C801AA03C2083A03A8019001ACFE231B
:104E10001F005B4801685B4802F0F1FD03F0E0F918
:104E200002003B00211D03A802F09AFF052000901C
:104E30000023554A211D03A803F00AF8FA239B001A
:104E4000A28801995148FBF77BF911B0F0BD000031
:104E50004F4B000088B5000894AE0008B8B50008B4
:104E6000101A002080B5FFF7B1FAFFF794FBFFF7A7
:104E70002DFC47484749E922920081504649ED22DE
:104E8000920081504549F122920081504449F52217
:104E9000920081504349F922920081504249FD22FB
:104EA000920081504149424A81504249424A8150D0
:104EB0004249434A81504349434A81504349444A05
:104EC00081504449444A81504449454A81504549AA
:104ED000454A81504549464A815001BDC8AE000847
:104EE000C0B50008F8B500242000270025002800E0
:104EF000C0B205283DDA3F4E2800C0B21021484319
:104F000030184078012832D1012007002800C0B2B3
:104F10001021484330184068002810D0FCF79AFA56
:104F20002900C9B21022514371184968401A29005A
:104F3000C9B21022514371188968884217D32000E2
:104F40002900C9B21022514371184870FCF782FA47
:104F50002900C9B210225143711848602800C0B21C
:104F60002900C9B2102251437118C96888476D1CC5
:104F7000BDE73800C0B2F2BDFCAE0008C8B50008FD
:104F8000501900200000C84290B50008B414002059
:104F9000900200203547000881470008E9470008D3
:104FA00065480008FD48000865490008054A0008F2
:104FB00004040000794A000814040000074B0008AC
:104FC00024040000694B000834040000FB4B000877
:104FD00044040000594C000854040000F14C00083F
:104FE000640400004D4D000874040000ED4D0008FD
:104FF000840400003402002000B5010000200A688B
:105000001278302A0CDB0A6812783A2A08DA0A6821
:10501000531C0B600A235843127880183038EEE78F
:1050200000BDF8B594B004000D00160051480068AA
:1050300002901C98400602D54F48006802901498D0
:10504000022802DB1498252801DB002090E01C9840
:10505000C00703D530206946487102E02020694628
:10506000487100273800694608711C98800709D5E7
:10507000002E07D52D2069460871704206001A9847
:10508000401E1A90002E04D1302003A9C8557F1C61
:1050900012E0002E10D00298009030001499FDF715
:1050A00048F90098405C03A9C8557F1C300014994A
:1050B000FDF73FF90600ECE71B98B84200DA1B97B2
:1050C0001A981B99411A1C98C0070CD40800411E5D
:1050D000012808DB20202070641C6D1E002D01D1EA
:1050E000200045E0F2E768460079002808D06846CD
:1050F00000792070641C6D1E002D01D1200037E066
:105100000800411E012809DB684640792070641CB4
:105110006D1E002D01D120002AE0F1E71B98421EF0
:105120001B92874208DA30202070641C6D1E002D0F
:1051300001D120001CE0F1E73800471E012809DBFF
:1051400003A8C05D2070641C6D1E002D01D12000DD
:105150000EE0F1E70800411E012808DB2020207046
:10516000641C6D1E002D01D1200001E0F2E720003B
:1051700015B0F0BD380700203C070020F7B58CB013
:105180001D000D98012801DA0020D4E00C9C0E9837
:105190000078002806D10C98201A0D99491E8842E3
:1051A00000DAC4E00C98201A0D99491E884200DBF1
:1051B000BDE00E980078252804D00E980078207065
:1051C000641CB0E0002003900E98401C0E900E98D6
:1051D0000078302803D1039801210143039100276F
:1051E000FF433E000E980078302807DB0E980078C9
:1051F0003A2803DA0EA8FFF7FFFE06000A97099780
:105200000A2008900E98007858283FD063280AD0CA
:10521000642842D0692840D0732810D0752840D027
:10522000782837D03EE0761E012E03DB2020207048
:10523000641CF8E728682D1D2070641C73E0286842
:105240002D1D04900498002801D13C480490049836
:1052500001F06AF807903000461E0799814203DA90
:1052600020202070641CF6E700200590059807991F
:1052700088420ADA0498007820700498401C049050
:10528000641C0598401C0590F0E74CE00398402111
:10529000014303911020089024E003980221014368
:1052A00003911FE00E980078252802D02520207059
:1052B000641C0C98201A0D99491E884212DA0E9827
:1052C0000078002804D00E9800782070641C02E05A
:1052D0000E98401E0E900C98201A0D99491E884277
:1052E00000DA20E009986C2803D128682D1D06906B
:1052F00009E00398800703D528682D1D069002E079
:1053000028682D1D0690039802900A980190009637
:10531000089B069A0D98401E0C99611A411A2000AC
:10532000FFF77FFE04000E98401C0E902FE7002030
:1053300020700C98201A0FB0F0BD0000F8B50008DE
:105340000548016801220A4302600448016880227E
:1053500052050A4302607047341002403810024080
:1053600010B50400002C01D101200EE020790028A6
:1053700004D1002060712000FDF7E5FF02202071BC
:105380000020206101202071002010BDFCB5030029
:105390000020009001905C79012C01D102201CE0DA
:1053A00001255D7102241C711C6826680B4C944019
:1053B000A6430F684C683C4327009740374300974B
:1053C000009E1F683E601E683668C0279740BE4337
:1053D0001F683E601D7158710020F6BDFE0F000071
:1053E00010B50400002C01D1012065E04120205CB3
:1053F000002805D10020402160542000FDF7FCFF6B
:1054000024204121605420680068012188432168DC
:1054100008606068294901402068016128482168C6
:105420008968014022689160E168012906D1A1687C
:10543000802212020A4321688A6005E0A168842262
:1054400012020A4321688A60E168022907D12168B3
:105450004968802212010A4321684A6005E02168F8
:105460004968184A0A4021684A6021684968164A12
:105470000A4321684A602168C96808402168C860F9
:10548000206961690143A069000208432168C8607E
:10549000E069216A014320680160206800680121F9
:1054A0000143206801600020606420214122A15452
:1054B000206342216054002010BD0000FFFFFFF078
:1054C000FF7FFFFFFFF7FFFF00800002FEB582B005
:1054D00004000F004120205C202800D0C7E00A987B
:1054E000002803D06846808D002804D180208000E9
:1054F00060640120BCE04020205C012801D1022032
:10550000B6E0012040216054FBF7A4FF060000969E
:105510001923012280210902200000F00BF9002844
:1055200001D00120A4E022204121605440204221EA
:105530006054002565640A9860626846808D6085C5
:10554000656301960C9800906846038A68468289D4
:10555000390089B2200000F093F8002803D04020E1
:105560002554012084E0608DFF280DD9012020857D
:105570004248009080235B04228DD2B2390089B268
:10558000200000F01AFA0CE0608D20853B48009066
:1055900080239B04228DD2B2390089B2200000F012
:1055A0000CFA00960C9B00220421200000F0C2F8A7
:1055B000002801D001205BE02068406A616A087021
:1055C000606A401C60622B48218D09182185618D1D
:1055D00008186085608D00282BD0208D002828D1E8
:1055E00000960C9B00228021200000F0A3F80028E8
:1055F00001D001203CE0608DFF280DD901202085DD
:105600000020009080235B04228DD2B2390089B241
:10561000200000F0D2F90CE0608D20850020009081
:1056200080239B04228DD2B2390089B2200000F081
:10563000C4F9608D0028B4D132000C99200000F02C
:10564000EDF8002801D0012012E020202168C86177
:1056500021684968084A0A4021684A60412160542B
:1056600028004221605440202554002000E0022000
:1056700005B0F0BDFFFF000000E800FE0024008040
:10568000FBB504001700089E099D1F4800900023E9
:1056900068460289D2B268468188200000F08DF900
:1056A0002A003100200000F086F8002801D00120F7
:1056B00027E068460089012804D13800C0B221687B
:1056C000886212E0380080B2000AC0B221688862A5
:1056D0002A003100200000F06EF8002801D00120DF
:1056E0000FE03800C0B221688862009533000022C4
:1056F0004021200000F01EF8002801D0012000E029
:105700000020FEBD000000000020008000B5016800
:105710008969890702D50021026891620121026826
:1057200092690A40002A04D1026892691143026812
:10573000916100BDF4B504000D001F00069E2068B5
:1057400080692840A84201D1012000E0002069467C
:10575000097888422DD132003900200000F08CF801
:10576000002801D0012025E00020C0438742E6D078
:10577000FBF770FE801B874201D3002FDFD120682A
:1057800080692840A84201D1012000E0002069463C
:1057900009788842D3D12020616C014361644121A2
:1057A0006054002001004222A15440216054012095
:1057B00000E00020F2BDF8B505000E00170002243D
:1057C000286880692040002826D13A00310028004E
:1057D00000F052F8002801D001201EE00020C04354
:1057E0008642ECD0FBF736FEC01B864201D3002E6A
:1057F000E5D1286880690440002CE0D12020696C44
:105800000143696441216854002001004222A954E7
:1058100040216854012000E00020F2BDF8B50500E9
:105820000E0017002024286880692040002821D11C
:105830003A003100280000F01FF8002801D00120B4
:1058400019E0FBF707FEC01B864201D3002EE9D109
:105850002868806920400028E4D1686C204368648F
:1058600041202C54002001004222A95440216854B8
:10587000012000E00020F2BDF7B584B0040000274D
:1058800020688069039000250698019010200399F4
:105890000140002953D02168C86120262068806912
:1058A0003040002840D13800C0B200283CD10598D3
:1058B0000021C9438842F0D0FBF7CCFD0199401A82
:1058C0000599814202D305980028E6D18020C001C5
:1058D00021684968014002914221615C6A46117069
:1058E0002168896909040ED5029981420BD0694665
:1058F0000978202907D02168496808432168486051
:10590000FBF7A8FD01902068806930400028C4D1D1
:10591000FBF7A0FD0199401A1A28F4D3280035009E
:10592000054301200700B8E73800C0B2002801D1C4
:105930002068C6612800042505430120070020686F
:10594000866980204000064204D001210D43226870
:10595000D0610F008020C000064206D02900082533
:105960000D432168C86101200700802080000642A5
:1059700006D0290002250D432168C86101200700D7
:105980003800C0B2002814D02000FFF7BFFE206806
:1059900040681749014020684160606C284360649A
:1059A000202041216054002001004222A1544021C6
:1059B00060543800C0B207B0F0BDF0B4049C0D00D4
:1059C000ADB2AD05AD0D1600F6B236042E431E4342
:1059D000264375006D0806687768BC46670D054E5E
:1059E0003E436746B7432F4306687760F0BC704775
:1059F00000E800FEFF63FF0310B502004120105CC9
:105A000020282AD14020105C012801D1022025E065
:105A10000120030040241355242341241355136807
:105A20001B680124A3431468236013681B68244C7B
:105A30001C4013681C6013681B680B4314682360C8
:105A400013681B6818431368186020204123D05442
:105A500000204023D054002000E0022010BD10B5EB
:105A600002004120105C202827D14020105C012832
:105A700001D1022022E001200300402413552423F9
:105A80004124135513681B680124A3431468236041
:105A900013681B680B4C1C400B02234314682360E3
:105AA0001468246820431468206020204124105585
:105AB000002040241055002000E0022010BD00000E
:105AC000FFEFFFFFFFF0FFFFF8B5040001252F00F7
:105AD000002C01D101205BE02120205C002805D1B1
